:100000000C94DD020C942F030C942F030C942F03FB
:100010000C942F030C942F030C942F030C942F0398
:100020000C942F030C942F030C94211B0C94F01BA5
:100030000C94EF150C942F030C942F030C942F03A6
:100040000C942F030C942F030C942F030C942F0368
:100050000C942F030C9457160C942F030C942F031D
:100060000C942F030C942F030C942F030C942F0348
:100070000C942F030C942F030C942F030C942F0338
:100080000C942F030C942F030C942F030C942F0328
:100090000C942F030C942F030C942F030C942F0318
:1000A0000C942F030C942F030C942F032A042C047C
:1000B00037042E04300432043404360439043B047B
:1000C0003D0448043F0441044304450447044A04F2
:1000D000230C230C550C550C930CCB0DCB0DCB0DD9
:1000E000B10CCB0D4A0D4A0DBB0DCB0DCB0DC40D84
:1000F000570D570D570D570D570D570D570D570DE0
:10010000570D570D570D570D570D570D570D570DCF
:10011000680D760D7D0D840D8E0D580E580E6A0EED
:100120006A0E610E6A0E6A0E6A0E580E580E660E40
:100130006A0E6A0E660E5D1C841C7C1D841C7C1D70
:10014000D01CF31C7C1D4A1D591D03516200E000A8
:100150002F0000002C000000E700000059005B00A9
:10016000E1001B001900025110003700E5005C009F
:100170005E002B00160009000B000E00340000008A
:100180005F00610029001A0015001C000C0013001C
:100190002A00600055001400080017001800120023
:1001A0004C0000005D005600040007000A000D002E
:1001B0000F00000028005A0057001D00060005002F
:1001C000110036003800000063005800E200000013
:1001D000015100002D000000E400BF5C010001009F
:1001E0000100000001000000A80000000100010063
:1001F00001000100010001000100010001000100F7
:10020000010039000100010001005100330000002D
:100210000100010035001F00210001005200010013
:100220004C00010001001E0020002200010001001E
:100230000100000001000100010001000100500068
:100240004F00000031000100010001000100010029
:100250000100010001000000C05C0100010000007D
:1002600001000000AA00000001001B001900E000CE
:10027000300000002C000000E30000001600090020
:10028000E1001B001900035110003700E1001A00C3
:1002900015002B00160009000B000E0034000000B2
:1002A0001F00210029001A0015001C000C0013007B
:1002B0002A00200042001400080017001800120055
:1002C0000100000008001700040007000A000D00EC
:1002D0000F000000280007000A001D0006000500AE
:1002E000110036003800000006000500E2000000A2
:1002F000055100002D000000045101000100010023
:1003000001000000010000000100000001000100E8
:1003100001000100010001000100010001000100D5
:1003200001000100010001000100010001000000C6
:10033000005C010001001F002100230025002700B0
:100340000100010001001E00200022002400260000
:100350000100000001000100010001000100010096
:100360000100000001000100010001000100010086
:100370000100010001000000010001000100000077
:100380000100000001000000010004033000000033
:1003900014035000720069006D0065005F004200A8
:1003A0004C004500000010035000720069006D0011
:1003B00065004B00420000000403090409023B00F1
:1003C000020100A0FA090400000103010100092153
:1003D000110100012240000705810308000A0904F9
:1003E0000100010300000009211101000122710038
:1003F0000705820320000A120110010000000852C4
:1004000050806501000102030105010980A10185F9
:10041000031601002603001A81002A830075109537
:10042000018100C0050C0901A10185041601002607
:100430009C021A01002A9C02751095018100C005DA
:10044000010906A1018505050719E029E715002521
:1004500001950875018102050819012905950575A1
:100460000191029501750391010507190029EF1506
:1004700000250195F075018102C005010906A10161
:10048000050719E029E71500250195087501810286
:100490009501750881010508190129059505750162
:1004A00091029501750391010507190029FF1500B7
:1004B00026FF00950675088100C041542B424C452B
:1004C000484944434F4E54524F4C4B45593D307868
:1004D000253034780041542B424C454B4559424F0E
:1004E000415244434F44453D253032782D30302D24
:1004F000253032782D253032782D253032782D2553
:100500003032782D253032782D2530327800415424
:100510002B4857564241540041542B4741504745C0
:1005200054434F4E4E0041542B4556454E54454E74
:1005300041424C453D3078320041542B4556454EA2
:1005400054454E41424C453D307831004F4B0041BF
:1005500054453D300041542B4741504445564E418F
:100560004D453D5072696D655F424C450041542BCD
:10057000424C45484944454E3D310041542B47418A
:1005800050494E54455256414C533D31302C333036
:100590002C2C0041545A0041542B424C45504F578B
:1005A00045524C4556454C3D2D3132004F057B059B
:1005B00055056D0597059305552211241FBECFEFF4
:1005C000DAE0DEBFCDBF04B603FE27C08091CE03C4
:1005D0009091CF03A091D003B091D1038730904B7D
:1005E000A740B04BD1F41092CE031092CF031092DB
:1005F000D0031092D10314BE84B7877F84BF0FB697
:10060000F894A895809160008861809360001092B2
:1006100060000FBEE0E0F8E3099511E0A0E0B1E072
:10062000E8E4FCE402C005900D92A032B107D9F7CE
:1006300023E0A0E2B1E001C01D92AE3CB207E1F7B9
:1006400012E0CDEDD2E004C02197FE010E9472229B
:10065000CC3DD107C9F70E946E180C9422260C9449
:100660000000279A2F980895089580FF02C02F9ABE
:1006700008952F98089581E0089581E008950C94DD
:100680003D031F93CF93DF9300D000D01F92CDB7CF
:10069000DEB749835A836B8320915E0189819A81F9
:1006A000211112C0662349F00E94A813182F682F49
:1006B00089819A810E94511303C00E947C13182FD4
:1006C00069817A81812F04C00E94A81369817A818F
:1006D0000F900F900F900F900F90DF91CF911F917F
:1006E0000C949104FC014081518162817381848169
:1006F0000C9441030E94DA14811102C00E94541527
:100700000C9407070C9409070C9435030C9484038C
:1007100008950E94460E0E9488032FE78AE196E022
:10072000215080409040E1F700C000000C947D16FD
:100730000F931F93CF93DF938C010E947203EC0100
:10074000B8010E943F03882309F4E1C0B801CE013B
:100750000E94B008882309F4DAC0C631FCE5DF073F
:1007600039F50E942914982FF80182812091000107
:1007700030910101882379F09A7A81E009F480E0D0
:1007800080932001911102C069E201C065E3C901B3
:100790000E94BC150AC080912001811102C069E24B
:1007A00001C065E3C9010E94C7150E947714AFC05C
:1007B000C7318CE5D80708F07DC0C130ECE5DE0715
:1007C00071F4F8018281882309F4A1C08091F101BC
:1007D000982F909590FB80F98093F10198C0C230DA
:1007E000FCE5DF0758F4C115DC4581F4F80182818E
:1007F000882309F48CC00E94890389C0C531ECE5C7
:10080000DE0720F4F8018281811107C0C801DF9161
:10081000CF911F910F910C943B030E94DA14811128
:1008200002C00E9454150E94ED1490E09093C00302
:100830008093BF03FE01E350FC45E231F10530F443
:10084000EA5AFF4F8091BF030C9472228091BF033C
:10085000816027C0826025C0846023C0806121C080
:1008600080621FC080641DC080681BC08460886077
:1008700018C08E7F16C08D7F14C08B7F12C08F7EF4
:1008800010C08F7D0EC08F7B0CC08F770AC08B7F0E
:10089000877F07C087FB222720F991E0922790FBF2
:1008A00087F98093BF038091BF030E94F1140E94D7
:1008B000460E2DC0CD3DFCE5DF0741F4F8018281F5
:1008C000882329F182E00E94FC1821C0CE3D8CE5EE
:1008D000D80750F4CC3DDC4509F098CFF80182816F
:1008E0008823A9F080E0EFCFCE3DFCE5DF0731F4AF
:1008F000F8018281882359F083E0E5CFCF3DDC45C4
:1009000009F084CFF801828181110E94541580E0A2
:10091000DF91CF911F910F91089580E090E00895AD
:10092000089528E4829FC0011124FC0129E0729FF0
:10093000E00DF11D1124E60FF11DEE0FFF1FE65B28
:10094000FE4F859194910895880F991FFC01E657F9
:10095000FC4F859194910895CF93DF930E94910469
:100960000E946806EC018115904508F041C0C11550
:1009700080E4D80708F028C1C83ED10510F5C03E74
:10098000D10508F0A1C1C83AD10578F4C53AD1051E
:1009900008F0A2C0C130D10509F496C108F447C1DE
:1009A000C430D10508F090C142C1CF3BD10508F455
:1009B0009EC0C03CD10508F43AC1CE01805C9109CB
:1009C000F5C0C11590E2D90758F4C11521E0D2074E
:1009D00008F07AC1C03FD10508F429C1D06574C1BF
:1009E000C11580E3D80708F0E5C0CE019F70DEC0D6
:1009F000C11595E5D90708F043C0C11524E5D20714
:100A000008F0F9C0C11582E5D80708F5C11591E5D0
:100A1000D90708F0DCC0CE0174E0969587957A95E9
:100A2000E1F783709C2F937021E030E002C0220F29
:100A3000331F9A95E2F73C68382BCF70C695C69560
:100A400080E2C89FE0011124C22BD32B3DC19E013F
:100A5000237033278C2F86958695C115D34508F0D2
:100A6000BBC0C1E0D0E002C0CC0FDD1F2A95E2F789
:100A700020E2829FC0011124C82BD92BDC6824C13D
:100A8000C11529E5D207A0F4C11588E5D80708F0FB
:100A9000B7C0C11596E5D90708F0C9C08C2F0E94D0
:100AA000E4068F71C82FD0E0DC2FCC27D0620CC1B8
:100AB000C1152AE5D20708F4A8C0CE0190568115C9
:100AC000904208F0B4C08D2F8F710E94E406DD279C
:100AD000D0628F71D82BF8C0C53AD10509F4AAC0ED
:100AE000C63AD10509F0A9C0C2E8D0E4EDC0C83AC1
:100AF000D10509F4A5C0C93AD10509F4A4C0CA3A80
:100B0000D10509F4A3C0CB3AD10509F4A2C0CC3A6F
:100B1000D10509F4A1C0CB3BD10509F4A0C0CC3B61
:100B2000D10509F49FC0CD3AD10509F49EC0C03B60
:100B3000D10509F49DC0CE3AD10509F49CC0CF3A45
:100B4000D10509F49BC0C13BD10509F49AC0C23B51
:100B5000D10509F499C0C33BD10509F498C0C43B41
:100B6000D10509F497C0C53BD10509F496C0C63B31
:100B7000D10509F495C0C73BD10509F494C0C83B21
:100B8000D10509F493C0C93BD10509F492C0CD3B0E
:100B9000D10509F491C0CE3BD10509F490C0CA3B00
:100BA000D10509F48FC0C0E0D4E48EC00E94A40433
:100BB000EC018AC0CE019927D3FF03C0EC01D86CA9
:100BC00083C0EC01D06C80C0DF70D06A7DC0DC2FA8
:100BD000CC27C16FD06A78C0C1E0D0E002C0CC0F92
:100BE000DD1F2A95E2F720E2829FC0011124C82B65
:100BF000D92BDA6869C0DC2FCC27C46FD06A64C0F7
:100C0000DC2FCC27C06FD06A5FC08C2F8F700E9402
:100C1000E40694E0D695C7959A95E1F7CF70D0E0B9
:100C2000DC2FCC27D06A8F70806EC82B4DC0C0E0FF
:100C3000D0E04AC0C1E8D0E447C0C3E8D0E444C033
:100C4000C2EED4E441C0C9EED4E43EC0CAEED4E45E
:100C50003BC0C5EBD4E438C0C6EBD4E435C0C3EB2D
:100C6000D4E432C0C4EBD4E42FC0C7EBD4E42CC02E
:100C7000CCECD4E429C0CDECD4E426C0C3E8D5E460
:100C800023C0CAE8D5E420C0C2E9D5E41DC0C4E948
:100C9000D5E41AC0C1E2D6E417C0C3E2D6E414C05A
:100CA000C4E2D6E411C0C5E2D6E40EC0C6E2D6E482
:100CB0000BC0C7E2D6E408C0CFE6D4E405C0C0E765
:100CC000D4E402C0CAE2D6E4CE01DF91CF91089508
:100CD0008238910549F1B0F48133910509F459C086
:100CE00048F48932910509F44FC08A32910509F41C
:100CF00055C008958533910509F441C089339105A4
:100D000099F00895833E910531F138F4803E9105C4
:100D100091F0823E9105A9F00895863E910501F17A
:100D2000873E910539F108952091BF0320FD3BC016
:100D300021FD39C008958091BF0380FF34C089E34D
:100D400041C08091BF0382FF30C08091BF0384FD0A
:100D50002EC083EE37C08091BF0382FD26C0F5CF41
:100D60008091BF0383FF25C08091BF0384FD1FC016
:100D700087EE28C08091BF0383FD1BC0F5CF809113
:100D8000BF0385FD18C019C08091BF0385FD15C044
:100D900012C08091BF0386FD12C013C08091BF03B3
:100DA00086FD0FC00CC080EE0DC082EE0BC080E04F
:100DB00009C086EE07C089E205C085E303C08AE268
:100DC00001C081E390E008959091BF0392FF0DC0B0
:100DD000282F2871283019F4877F846006C0282FB7
:100DE0002471243011F48B7F886093FF0DC0282F6D
:100DF0002871283119F4877E846106C0282F247158
:100E0000243111F48B7E886194FD877E08950C94C3
:100E100031030C943403E82FF0E0EE0FFF1FEF5D79
:100E2000FE4F8081918108950895CF93DF93A7E1CC
:100E3000B1E04FE151E061E070E08D91E82FE29583
:100E4000EF70F0E091A18F709B0101C0220F8A9595
:100E5000EAF7822F8095892381A34A175B0769F7F8
:100E6000AEE0B1E047E151E061E070E08D91E82F44
:100E7000E295EF70F0E021A18F70EB0102C0CC0F82
:100E8000DD1F8A95E2F7CE019C2F9095922391A3C6
:100E900092A1892B82A34A175B0741F7E1E3F1E0B6
:100EA000A1E2B1E081E491E0119211921D921D92B4
:100EB0008E179F07C9F788E00E940108DF91CF9144
:100EC0000C947A033F924F925F926F927F928F922F
:100ED0009F92AF92BF92CF92DF92EF92FF920F93C9
:100EE0001F93CF93DF9367E171E0A1E3B1E021E4C9
:100EF000622E21E0722E412C01E010E05D018D9008
:100F00009C90119711961C921E92EB018991BE0143
:100F1000E82FE295EF70F0E021A18F70A80102C0E8
:100F2000440F551F8A95E2F7CA01242B21A322A161
:100F3000342E3094232122A350E55A95F1F79EE0F8
:100F4000E92E91E0F92E40E050E0E70159907E0152
:100F5000252D22952F7030E0E90128A1CD90DC905D
:100F6000119730E0D52DDF7002C035952795DA95C1
:100F7000E2F720FD08C09801042E02C0220F331FA3
:100F80000A94E2F702C020E030E0C22AD32A119688
:100F9000DC92CE924F5F5F4F49305105B1F691A17F
:100FA000D32DD923D1A392A1892B82A3129681E0BC
:100FB000F501208131812815390509F480E0482A9E
:100FC0006A167B0609F09ACF242D48E061E271E0B1
:100FD00081E391E00E9402080E948203842DDF9148
:100FE000CF911F910F91FF90EF90DF90CF90BF9026
:100FF000AF909F908F907F906F905F904F903F90B9
:1010000008950895FF920F931F93CF93DF93F82EC7
:10101000092F162FD72FC42F222349F081E0809368
:1010200043010E94211690934201809341018091D7
:1010300043018823D9F080914101909142010E949F
:101040002D16069798F0EF2DF02FA12FBD2F80E0E1
:1010500090E04C2F50E08417950734F421913191A2
:101060002D933D930196F7CF10924301DF91CF91DD
:101070001F910F91FF9008950F931F93CF93DF93CC
:10108000C62FD42F122FFC0182818823C9F06093D0
:1010900046010E942116909345018093440180E20D
:1010A0008C0F883008F057C0C77081E001C0880FEE
:1010B000CA95EAF7DF91CF911F910F910C94E00B45
:1010C00080914601681330C08091440190914501A0
:1010D0000E942D16883C910538F500E20D0FCD17C2
:1010E000B9F080E28C0F883040F4C77081E001C015
:1010F000880FCA95EAF70E94E70B083028F581E0CF
:101100009D2F977001C0880F9A95EAF70E94E00B17
:10111000812F0E94CD0B0830F0F4D77081E001C020
:10112000880FDA95EAF70AC080E28C0F883098F4CD
:10113000C77081E001C0880FCA95EAF7DF91CF91AF
:101140001F910F910C94E70B812FDF91CF911F918D
:101150000F910C94CD0BDF91CF911F910F910895BA
:101160009C01CB01213F4CE53407F9F078F4283D90
:10117000FCE53F07B9F0293D4CE5340711F1273D67
:101180003C4531F526E241EE61EE1EC0233FFCE511
:101190003F0799F070F0243F3C45D1F427E245EE3B
:1011A00066EE12C027E245EE0EC026E241EE60EE8A
:1011B0000BC027E245EE64EE07C026E241EE62EE88
:1011C00003C028E241E065EE0E943C0880E00895FB
:1011D000FC018281882319F010924601089581E074
:1011E000089590934C0180934B010895E0914B0139
:1011F000F0914C01309721F00190F081E02D09949D
:1012000080E00895E0914B01F0914C01309799F006
:1012100020910C01222359F02091BF0327FF07C022
:10122000DC012C9111962C93119725E02C930280D0
:10123000F381E02D099408952091490130914A01EC
:101240002817390771F090934A0180934901E09182
:101250004B01F0914C01309721F00680F781E02D91
:1012600009940895209147013091480128173907C2
:1012700071F09093480180934701E0914B01F09108
:101280004C01309721F00084F185E02D09940895F8
:1012900085B7806885BF85B7806885BF0895089544
:1012A0000C944F090C9450090C944F090C944F095D
:1012B0000E9448090E9454090C94520981E0089543
:1012C0000E9418160E9415070E94A1160C94560938
:1012D0005F926F927F928F929F92AF92BF92CF92C6
:1012E000DF92EF92FF920F931F93CF93DF93CDB7CF
:1012F000DEB72A970FB6F894DEBF0FBECDBF0E94AF
:1013000062070E945E09811111C08FEF89838A8371
:101310001B820E9421168160782F9D838C834981D6
:101320005A816B818D810E94230A56C09EE4692EEA
:1013300091E0792E00E010E088248394912C502EC7
:10134000802F0E940B076C01F301A190B1903F0127
:10135000A826B926A114B10431F40F5F1F4F08303D
:10136000110569F7D2CF8091F10181FD0E94140728
:1013700080E090E07401082E02C0EE0CFF1C0A947D
:10138000E2F795012E213F21232B09F18E835F8205
:10139000CE20DF2081E0CD2809F480E088870E94FC
:1013A00021168160782F9A8789874E815F816885B1
:1013B0008A850E94230A000F111FF801E25BFE4F8D
:1013C00080819181E826F926F182E08205C00196AC
:1013D0008930910579F6C1CF0E94F60890914D01B0
:1013E0008917D9F00E94F60880934D012A960FB60E
:1013F000F894DEBF0FBECDBFDF91CF911F910F914B
:10140000FF90EF90DF90CF90BF90AF909F908F9024
:101410007F906F905F900C9486032A960FB6F89495
:10142000DEBF0FBECDBFDF91CF911F910F91FF9017
:10143000EF90DF90CF90BF90AF909F908F907F9074
:101440006F905F900895CF93DF93CDB7DEB72B9762
:101450000FB6F894DEBF0FBECDBF4F8358876987A4
:101460007A878B87DE01119686E0FD0111928A95BD
:10147000E9F785E0FE01379601900D928A95E1F734
:1014800049815A816B817C818D819E810E941611D8
:101490002B960FB6F894DEBF0FBECDBFDF91CF9174
:1014A0000895FC01808191810E94EA1308958823A8
:1014B00009F413C1682F8238C1F40E94F60881FD37
:1014C0000CC169E380910001909101010E94BC155B
:1014D0000E9477142FEF80E792E0215080409040E7
:1014E000E1F700C0000069E319C08338F9F40E94F5
:1014F000F60880FDF2C063E5809100019091010142
:101500000E94BC150E9477142FEF80E792E02150D3
:1015100080409040E1F700C0000063E58091000149
:10152000909101010E94C7150C9477148438C1F47E
:101530000E94F60882FDD1C067E48091000190917D
:1015400001010E94BC150E9477142FEF80E792E002
:10155000215080409040E1F700C0000067E4DECFFA
:101560008CEF860F813A38F480910001909101014F
:101570000E94BC15D9CF80E2860F883048F467708E
:1015800081E001C0880F6A95EAF70E942C14CCCF45
:101590008BE5860F833070F4653A29F0663A31F0B6
:1015A00083E890E005C081E890E002C082E890E026
:1015B0000C941C0988E5860F873108F08EC0683AC4
:1015C00009F445C0693A09F445C06A3A09F445C0CE
:1015D0006B3A09F445C06C3A09F445C06B3B09F419
:1015E00045C06C3B09F445C06D3A09F445C0603B09
:1015F00009F445C06E3A09F445C06F3A09F445C094
:10160000613B09F445C0623B09F445C0633B09F402
:1016100045C0643B09F445C0653B09F445C0663BE1
:1016200009F445C0673B09F445C0683B09F445C06F
:10163000693B09F445C06D3B09F445C06E3B09F4B4
:1016400045C06A3B09F445C080E090E044C082EEAA
:1016500090E041C089EE90E03EC08AEE90E03BC051
:1016600085EB90E038C086EB90E035C083EB90E0EE
:1016700032C084EB90E02FC087EB90E02CC08CEC64
:1016800090E029C08DEC90E026C083E891E023C073
:101690008AE891E020C082E991E01DC084E991E0F0
:1016A0001AC081E292E017C083E292E014C084E2A3
:1016B00092E011C085E292E00EC086E292E00BC09B
:1016C00087E292E008C08FE690E005C080E790E0F6
:1016D00002C08AE292E00C9432090895882309F44A
:1016E0005BC0682F823879F40E94F60881FF54C0ED
:1016F00069E380910001909101010E94BC150E9454
:10170000771469E310C08338B1F40E94F60880FFB3
:1017100043C063E580910001909101010E94BC15D6
:101720000E94771463E580910001909101010E946D
:10173000C7150C947714843879F40E94F60882FF58
:101740002BC067E480910001909101010E94BC15BB
:101750000E94771467E4E7CF8CEF860F813A18F385
:1017600080E2860F883048F4677081E001C0880FFE
:101770006A95EAF70E943214DCCF8BE5860F83303E
:1017800020F480E090E00C941C09685A673120F442
:1017900080E090E00C9432090895CF93C82F0E9406
:1017A000570AC93349F42FEF81EE94E0215080406D
:1017B0009040E1F700C000008C2FCF910C946E0B8D
:1017C000882321F00E942C140C9477140895882308
:1017D00021F00E9432140C94771408958F929F92F6
:1017E000AF92BF92DF92EF92FF920F931F93CF932E
:1017F000DF937C01062FC72FFC01158112951F7006
:10180000D281D1110E9449140E942214882379F0B8
:10181000DD2369F080E2800F883048F082E00E948A
:10182000C1140E94221491E0D82ED92601C0D12CD7
:10183000BC2EB2948FE0B8228B2D90E0FC01E859C9
:10184000FF4F0C9472228C2F807FCF70882311F071
:10185000C295C07FDD2399F0CC2309F477C180E2E3
:10186000800F883010F0011104C08C2F0E942C14BE
:1018700003C08C2F0E943C140E94771467C1802FF4
:101880000E946E0BCC2309F486C180E2800F883061
:1018900010F0011104C08C2F0E94321403C08C2F51
:1018A0000E9442140E94771476C18C2F807FCF70E3
:1018B000803211F0C295C07F002319F00130C9F0C9
:1018C00022C0DD2371F0112341F0113031F40E9468
:1018D0005C148C2B0E9464145EC10E945C148C2BDF
:1018E000EEC0112319F0113009F455C10E946D1496
:1018F00018C0DD2321F0163008F04DC10EC01530A0
:1019000008F049C10EC0DD2351F0112331F0F70179
:10191000858180FF1BC18F7085838C2FD0C01111F2
:1019200026C18C2FD2C08C2F86958695837019F096
:10193000813061F030C1DD2321F0802F9C2F937026
:1019400002C080E090E00E941C0932C1DD2321F03A
:10195000802F9C2F937002C080E090E00E9432099B
:1019600027C18C2F837009F047C0D1111DC1202FD2
:10197000229526952770220F220F602F6F70862FD9
:1019800090E0A0E0B0E04C015D01022E04C0880CA4
:10199000991CAA1CBB1C0A94D2F704FF10C08FE04C
:1019A00090E0A0E0B0E004C0880F991FAA1FBB1F01
:1019B0002A95D2F780959095A095B09503C080E0C8
:1019C00090E0DC01C695C695C370BC01CD016829C5
:1019D00079298A299B29C23049F058F4C13019F07D
:1019E0000E946712E1C00E945512DEC00E94791267
:1019F000DBC00E945312D8C0DD2319F08C2F8170F8
:101A000001C08695882309F4CFC0202F2295269502
:101A10002770220F220F602F6F70862F90E0A0E0BA
:101A2000B0E04C015D01022E04C0880C991CAA1C78
:101A3000BB1C0A94D2F704FF10C08FE090E0A0E036
:101A4000B0E004C0880F991FAA1FBB1F2A95D2F7C8
:101A500080959095A095B09503C080E090E0DC0162
:101A6000C695C695C370BC01CD01682979298A291C
:101A70009B29C23049F058F4C13019F00E942C1350
:101A800093C00E941A1390C00E943E138DC00E9402
:101A90008D128AC0802F90E0FC01E05EF109E531F3
:101AA000F10508F04FC0E858FF4F0C9472220F70F8
:101AB0008C2F8F71DD2331F00E94B312802F0E9492
:101AC000E00B69C00E94D412802F0E94E70B63C014
:101AD000DD2341F0153008F05EC08C2F8F710E941D
:101AE000F91259C0163008F056C0F7CFDD2339F08F
:101AF0008C2F8F710E94B3124EC0DD23C9F38C2F3F
:101B00008F710E94D41247C0DD2329F08C2F8F7172
:101B10000E949E1240C00E9499123DC0DD2349F0F0
:101B2000CF718C2F0E94B31263E08C2F0E94AC14F3
:101B300032C081E00E94C114123068F182E00E943C
:101B4000C11429C0DD2331F0112391F2802F0E94AE
:101B5000570A21C0112399F2093349F4FFEF21EE0E
:101B600084E0F15020408040E1F700C00000802F69
:101B70000E946E0B10C04C2F4F70602FC7010E9447
:101B80008D040E94C41114C04C2F4F70602FC701E8
:101B90000E9490040DC098E0B91631F0B91640F0DB
:101BA00086EF8B0D823020F40E94F6080E94860397
:101BB000DD20E1F00E941E1480FD18C0F7011282A2
:101BC0000E9418140E94B312C7010E94020E0E94C4
:101BD0001814DF91CF911F910F91FF90EF90DF903C
:101BE000BF90AF909F908F900C94D412DF91CF91C3
:101BF0001F910F91FF90EF90DF90BF90AF909F905B
:101C00008F9008950F931F93CF93DF93EC019881EA
:101C100089812B813C81232B31F08F3F31F481E08E
:101C20009F3F19F403C081E001C080E080FD13C034
:101C3000CE010E949803882371F0688179818A819E
:101C40000E94F5138C010E9450130E944112B801AA
:101C5000CE010E94EE0BDF91CF911F910F9108955D
:101C60000E9449140E9459140E94771480E090E069
:101C70000E941C0980E090E00C94320980910001E0
:101C8000909101010E94D2150C94300E0E943914DB
:101C90000C943E0EE92FE295EF704E2F50E0FA01C2
:101CA0003297EE30F105B0F4E357FF4F0C947222F7
:101CB000803F91F018F4803E68F40EC0843F51F4E8
:101CC0000BC0803E48F0813F29F406C093FB882773
:101CD00080F9089580E0089581E008950E94EA1354
:101CE0000E944A0E0895CF93DF9300D000D01F9238
:101CF000CDB7DEB70F900F900F900F900F90DF9140
:101D0000CF910895CF93DF9300D000D000D0CDB70E
:101D1000DEB726960FB6F894DEBF0FBECDBFDF91BB
:101D2000CF9108951F93CF93DF93C0915F0116E089
:101D300080916001C81799F0D0E01C9FF0011D9FB1
:101D4000F00D1124EF59FE4F408151816281738162
:101D5000848195810E94820E2196C770E9CFDF9120
:101D6000CF911F91089540919101509192016091FE
:101D700093017091940180919501909196010C943A
:101D8000820ECF938091960182958F7009F05FC08B
:101D900080919301882309F45AC080915F01B0912A
:101DA000600170919101A091920140919401509134
:101DB000950191E07F3F09F090E0692FC6E08B1715
:101DC00009F445C04115510521F0AF3F21F020E055
:101DD00003C021E001C0262F90E020FD35C0C89F40
:101DE000F001C99FF00D1124EF59FE4F21812A13F4
:101DF0002BC02081271328C02281211125C02381D7
:101E000034812417350710F421503109241B350B78
:101E1000283C3105C8F4209196012F702061209351
:101E2000960126E0289FF001299FF00D1124EA5920
:101E3000FE4F80818F708061808381E991E00E94F4
:101E4000020ECF910C94920E01968770B8CFCF916D
:101E50000895AF92BF92CF92DF92EF92FF920F93CD
:101E60001F93CF93DF93CDB7DEB761970FB6F8948A
:101E7000DEBF0FBECDBF8C0185E0F801DE011D96EF
:101E800001900D928A95E1F7D8014C9111965C91E1
:101E900011971296EC90309191016091920180918E
:101EA000940190919501009731F06F3F31F421E05A
:101EB0003F3F19F403C021E001C020E0B22FB17010
:101EC000BB2E20FD60C1F801C380D480A090930197
:101ED000AA2009F4EEC020919601C816D90628F070
:101EE000D601A81BB90BCD0104C0809590958C0D2F
:101EF0009D1DFF24F394883C910580F0F12C207FF8
:101F000009F09CC07C2DD98AC88A6E2D89890E94CF
:101F1000730E81E991E00E94020E2DC1822F807F15
:101F200009F054C0561314C0431312C0FE2CE11024
:101F30000FC02F702061209396010E94B30E81E99B
:101F400091E00E94020E80919601F80185835CC1A8
:101F5000CD2831F05F3F31F481E04F3F19F403C0E9
:101F600081E001C080E080FD03C081E08E2502C0D9
:101F700080E090E0F82FF170FF2E80FF1CC0809170
:101F80005F012091600136E0821709F41AC190E0E8
:101F9000389FF001399FF00D1124EF59FE4F6181F8
:101FA000561306C06081461303C06281E61203C067
:101FB00001968770E9CFFE2CEE2009F425C18091AF
:101FC0009601816080939601F12C1EC1561309C0C1
:101FD000431307C0E11005C080919601F801858385
:101FE000A4C04D875E878D859E850E946E0E8823D6
:101FF00079F1EE2069F120919601822F82958F7000
:1020000090E0029774F080919101909192019887ED
:102010008F831986DB86CA862C87CE0107960E949D
:10202000020E86E0F801A1E9B1E001900D928A95D7
:10203000E1F70E94C10E0E94B30E0DC0561771F059
:102040004D875E878D859E850E946E0E81111AC018
:10205000C8010E94020EFF24F394D6C04313F0CFB0
:10206000E110EECF80919601F8018583C8010E94AE
:10207000020E86E0E1E9F1E0DF011D928A95E9F7C1
:10208000FA2CC2C0EE2021F320919601822F829576
:102090008F7090E002972CF28091910190919201C3
:1020A0009A8389831B82DD82CC822E83CE010196A6
:1020B000B6CFC816D90628F0F601E81BF90BCF01F8
:1020C00004C0809590958C0D9D1D883C910548F02D
:1020D000F12C7C2DD98AC88A6E2D89890E94730EB5
:1020E0004AC0FE2CEE2009F4B3CF561333C043137D
:1020F00031C02091960120FD24C0822F82958F70DF
:10210000482F50E041155105E1F0D80115962C9368
:1021100015974F30510549F08F5F982F9295907F1A
:10212000822F8F70892B15968C93C8010E94020E06
:1021300086E0F801A1E9B1E001900D928A95E1F7FE
:102140003DC086E0F801A1E9B1E001900D928A95C9
:10215000E1F75AC04D875E878D859E850E946E0E81
:1021600081115FCF80919601816080939601C801B3
:102170000E94020E49C0E1E9F1E086E0DF011D9214
:102180008A95E9F71BC0EE2009F462CF4D875E8780
:102190008D859E850E946E0EF82E882309F458CFF7
:1021A00086E0F801A1E9B1E001900D928A95E1F78E
:1021B00081E991E00E94510A0E94C10E0E94B30E73
:1021C00023C04D875E878D859E850E94EA13292F47
:1021D00022952F70223028F49F7039F0811105C0AC
:1021E0000BC0243028F49F7049F4805E883020F0C2
:1021F000C8010E94020EBF2CFB2C06C0D801159608
:102200009C91907F91F7F8CF8F2D61960FB6F8943F
:10221000DEBF0FBECDBFDF91CF911F910F91FF9019
:10222000EF90DF90CF90BF90AF9008951F93CF9322
:10223000DF93CDB7DEB72C970FB6F894DEBF0FBE95
:10224000CDBF4F83588769877A878B879C87CE015C
:1022500007960E94290F8823D1F09F8188852A85BF
:102260003B85232B31F08F3F31F481E09F3F19F400
:1022700003C081E001C080E080FD47C04F815885E8
:1022800069857A858B859C850E94820E3EC086E09A
:10229000FE013796DE01119601900D928A95E1F7C5
:1022A000FF81E8856A857B856115710531F0EF3F17
:1022B00031F481E0FF3F19F403C081E001C080E008
:1022C00080FD23C02091600130E0C9010196877034
:1022D000992740915F0150E084179507F1F1F98348
:1022E000EA837D836C8396E0929FD001939FB00D2B
:1022F0001124AF59BE4FFE01319601900D929A956F
:10230000E1F7809360010E94920E16E080915F01D8
:1023100090916001891771F1189FC00111248F59A4
:102320009E4F0E94290F882329F1E0915F011E9F93
:10233000F0011124EF59FE4F408151816281738178
:10234000848195810E94820E80915F0190E00196C8
:102350008770992780935F01D9CF0E94460E109213
:10236000600110925F01E1E9F1E086E0DF011D927A
:102370008A95E9F72C960FB6F894DEBF0FBECDBF55
:10238000DF91CF911F910895EF92FF920F931F93CA
:10239000CF93DF938C01892B09F46CC0F12CEE24D0
:1023A000E394E8012196F8018491843740F4843065
:1023B00008F051C0813081F0823019F15BC085375F
:1023C00009F444C0A8F19CE7980F903708F052C078
:1023D0008F770E946E0B41C00E5F1F4FFE018491EC
:1023E00090E2980F983050F48770FE2D01C0FF0FD7
:1023F0008A95EAF78F2F0E944C1414C00E94570A46
:102400002DC00E5F1F4FFE01849190E2980F98300F
:1024100060F48770FE2D01C0FF0F8A95EAF78F2FB9
:102420000E9452140E94771419C00E946E0B16C0AD
:102430000E5F1F4FFE01C491CC2381F08FEC97E01B
:102440000197F1F700C00000C150F6CF0E5F1F4F9B
:10245000FE01F49003C00E94570A8E018F2D88233D
:1024600009F49FCFEFECF7E03197F1F700C00000DF
:102470008150F5CFDF91CF911F910F91FF90EF9099
:102480000895089508950C9442120C9443120E94EA
:1024900045126093C8017093C9018093CA0190935B
:1024A000CB010C94300E0C9447120F931F930091A4
:1024B000C8011091C9012091CA013091CB01602B54
:1024C000712B822B932B1F910F910C9447120F931A
:1024D0001F930091C8011091C9012091CA01309148
:1024E000CB0160237123822393231F910F910C94BE
:1024F00047120F931F930091C8011091C9012091B9
:10250000CA013091CB0160277127822793271F9141
:102510000F910C9447120C9442120E948B126093FC
:10252000C4017093C5018093C6019093C7010C94B8
:10253000300E60E070E0CB010C948D120F931F936E
:1025400041E050E060E070E08A019B0104C0000FB0
:10255000111F221F331F8A95D2F7C901B8011F919D
:102560000F910C948D120F931F9341E050E060E0A7
:1025700070E004C0440F551F661F771F8A95D2F77D
:102580008091C4019091C501A091C601B091C7018D
:102590008A019B01082B192B2A2B3B2BC901B8015F
:1025A0001F910F910C948D120F931F9341E050E0F7
:1025B00060E070E004C0440F551F661F771F8A95C6
:1025C000D2F740955095609570958091C401909197
:1025D000C501A091C601B091C7018A019B010823E2
:1025E00019232A233B23C901B8011F910F910C9491
:1025F0008D120F931F9341E050E060E070E004C043
:10260000440F551F661F771F8A95D2F78091C4012A
:102610009091C501A091C601B091C7018A019B01AB
:10262000082719272A273B27C901B8011F910F91B5
:102630000C948D120F931F930091C4011091C5014A
:102640002091C6013091C701602B712B822B932BF7
:102650001F910F910C948D120F931F930091C40141
:102660001091C5012091C6013091C70160237123EB
:10267000822393231F910F910C948D120F931F931C
:102680000091C4011091C5012091C6013091C7018C
:1026900060277127822793271F910F910C948D1229
:1026A000089529E0929F800D1124E82FE695E69584
:1026B000E695877051E001C0550F8A95EAF785E0ED
:1026C000E89FF0011124E956FE4F20E030E070E071
:1026D0004081CB01022E02C0969587950A94E2F7BD
:1026E0008170819584278523842781932F5F3F4FB5
:1026F0002530310569F7089529E0929F800D112456
:10270000682F669566956695982F977085E0689F07
:10271000B001112440E050E080E0FB01E40FF51F20
:10272000E956FE4F208130E0092E02C036952795EC
:102730000A94E2F721703327042E01C0220F0A9475
:10274000EAF7822B4F5F5F4F4530510531F708950F
:10275000BF92CF92DF92EF92FF920F931F93CF938E
:10276000DF938C01C090C401D090C501E090C601F8
:10277000F090C7018091C8019091C901A091CA0150
:10278000B091CB01C82AD92AEA2AFB2ACFE1D0E0AE
:10279000D701C6010C2E04C0B695A79597958795CD
:1027A0000A94D2F780FD04C0219790F7B12C07C09E
:1027B000BC2EB8018C2F0E94AC040197A9F38B2D7D
:1027C000DF91CF911F910F91FF90EF90DF90CF900D
:1027D000BF900895CF93DF93EC010E94A813BE0130
:1027E0000E94AC04DF91CF9108951F93CF93DF93A4
:1027F000EB0190915E01992321F0CB010E94EA1335
:1028000013C0882349F0CB010E94A813182F682F0A
:10281000CE010E94511304C0CB010E947C13182FDB
:10282000BE01812F0E94AC04DF91CF911F910895CA
:102830008091CC0185958595859508958091CC01F1
:10284000877008959091CC01977081E009F480E041
:1028500008958091F00108959091F001892B809363
:10286000F001089580959091F00189238093F00103
:1028700008951092F00108959091EF01892B8093B3
:10288000EF01089580959091EF0189238093EF01E6
:1028900008951092EF0108959091EE01892B809395
:1028A000EE01089580959091EE0189238093EE01C9
:1028B00008951092EE0108958091CD010895089534
:1028C0000C945F140C9460149091CD01981721F032
:1028D0008093CD010C94621408958091CD018823DA
:1028E00029F01092CD0180E00C9462140895E091DB
:1028F0000001F09101018091F0018083E0910001DD
:10290000F091010190818091EF01892B8083E0910A
:102910000001F091010190818091EE01892B80836B
:102920008091CD01882381F0E0910001F0910101B7
:102930009081892B808380910001909101010E94F8
:10294000561581110E946D14809100019091010132
:102950000C9402090C945F1498E0899F9001112453
:10296000262B2093CC010E94B3128091CC01859537
:10297000859585950C94AA141092CC0180E00C9456
:10298000AA142091CC01809582238093CC01982FAA
:10299000977079F430E0482F082E000C550B24175F
:1029A000350739F08595859585950E94D4120C944C
:1029B000BC14089580E090E00E94B12521E08D3E96
:1029C0009E4F09F020E0822F089582E090E00C9461
:1029D000A92583E090E00C94A92584E090E00C9474
:1029E000A925682F84E090E00C94B725AB01BC01C9
:1029F0008FE090E00C94C925AB01BC0183E190E02D
:102A00000C94C92560E070E0CB010C94FC1460E0EC
:102A100070E0CB010E94F6140C9402156DEE7EEF6F
:102A200080E090E00E94D52560E082E090E00E9486
:102A3000B72560E083E090E00E94B7251092C801BE
:102A40001092C9011092CA011092CB0160E084E09B
:102A500090E00E94B72560E085E090E00E94B725F5
:102A600060E086E090E00E94B7256FEF87E090E09D
:102A70000E94B72540E050E0BA0188E090E00E9453
:102A8000C92560E08DE090E00E94B72540E050E06D
:102A9000BA0188E190E00E94C92560E087E190E0FA
:102AA0000E94B7250C9407150C940E15FC01329664
:102AB00080910C01882331F08091BF0387FF02C011
:102AC0009EE101C096E080E0915028F02191222300
:102AD000D9F38F5FF9CF08959C01FC0132969FEFE7
:102AE00080E04191461789F09F3F19F4411101C0E0
:102AF000982F8F5F8630A9F79F3F39F0F901E90FD2
:102B0000F11D97FDFA956283089508959C012A5F4F
:102B10003F4FFC014281461301C012820196821789
:102B20009307B9F70895262F2695269526952E31D9
:102B300068F4FC01E20FF11D677021E030E001C094
:102B4000220F6A95EAF78281282B22830895262F87
:102B50002695269526952E3170F4FC01E20FF11D85
:102B6000677021E030E001C0220F6A95EAF72095F6
:102B7000828128232283089520910C01222329F0A9
:102B80002091BF0327FD0C9493150C946C15209194
:102B90000C01222329F02091BF0327FD0C94A715D7
:102BA0000C94861520910C01FC013296222331F001
:102BB0008091BF0387FF02C08EE101C086E0DF0184
:102BC0001D928A95E9F7089508950C94E4150E94E2
:102BD000460E0E94F6080E9486030C94E5151F928B
:102BE0000F920FB60F9211248F939F93AF93BF93C1
:102BF0008091F201811113C08091BB039091BC03BD
:102C0000A091BD03B091BE034196A11DB11D80935B
:102C1000BB039093BC03A093BD03B093BE03BF91CD
:102C2000AF919F918F910F900FBE0F901F901895AD
:102C300082E084BD93E095BD9DE797BD80936E00D3
:102C400008952FB7F8948091BB039091BC03A09195
:102C5000BD03B091BE032FBF0895CF92DF92EF92D4
:102C6000FF920F931F932FB7F8944091BB0350919D
:102C7000BC036091BD037091BE032FBF6A017B014D
:102C8000EE24FF248C0120E030E0C016D106E206DD
:102C9000F30610F4415051099A01281B390BC90160
:102CA0001F910F91FF90EF90DF90CF90089578944F
:102CB0001F920F920FB60F9211248F939F93AF9391
:102CC000BF938091BB039091BC03A091BD03B091D1
:102CD000BE030196A11DB11D8093BB039093BC035D
:102CE000A093BD03B093BE03BF91AF919F918F910D
:102CF0000F900FBE0F901F90189581E08093E00019
:102D000080E28093D8001092C9008FE097E201978B
:102D1000F1F700C0000087E090EBDC018093CE0368
:102D20009093CF03A093D003B093D1039CE088E1AC
:102D30000FB6F894A895809360000FBE9093600042
:102D4000FFCF0E94DA14811102C00E9454150E9424
:102D5000E5148093F1010E94ED1490E09093C0037C
:102D60008093BF030E94E914682F70E080E090E038
:102D70000C9453128091130208950895EF92FF92DC
:102D80001F93CF93DF9300D01F92CDB7DEB77C01A6
:102D90000E940E19182F8DEF810F823040F460E0F1
:102DA00070E0C7010E942922143019F026C01230A9
:102DB00021F584E08983FB82EA8282E08093E90046
:102DC0008FEF9091E800815095FD06C09AE69A95A4
:102DD000F1F700C08111F5CF8091E80085FF0DC0AB
:102DE00040E050E063E070E0CE0101960E941519CA
:102DF0008091E8008E778093E8000F900F900F90FD
:102E0000DF91CF911F91FF90EF900895CF93DF93C3
:102E100000D01F92CDB7DEB72091C503243031F525
:102E200023E02983805891099B838A8382E08093E1
:102E3000E9008FEF9091E800815095FD06C09AE679
:102E40009A95F1F700C08111F5CF8091E80085FFD8
:102E50000DC040E050E063E070E0CE0101960E94BA
:102E600015198091E8008E778093E8000F900F90FD
:102E70000F90DF91CF9108951F93CF93DF93EC01D3
:102E80000E940E19182F8DEF810F823050F446E00A
:102E9000BE016E5F7F4F88810E94C121143019F0FE
:102EA0003DC01230D9F580910C01882339F0809112
:102EB000BF0387FF03C060E282E002C068E081E0F8
:102EC0008093E9008FEF9091E800815095FD06C056
:102ED0009AE69A95F1F700C08111F5CF8091E8004C
:102EE00085FF1CC080910C01811105C040E050E0BD
:102EF00068E070E003C070E040E050E0CE010E9466
:102F000015198091E8008E778093E80080E2FE0139
:102F1000A3EFB1E001900D928A95E1F7DF91CF9197
:102F20001F9108958091C403811109C00E94A61ABF
:102F30000E94031B8091E20084608093E200089568
:102F40001092C4030895089508950C94E71542E083
:102F500061EC81E00E941F1A42E261EC82E00C9475
:102F60001F1A8091C703833009F460C030F48130A8
:102F700071F0823009F499C008958A3009F485C04F
:102F80008B3009F46BC0893009F0A7C020C0809154
:102F9000C603813A09F0A1C08091E800877F809341
:102FA000E8008091CA039091CB03892B21F460E261
:102FB00083EF91E003C060E080E090E070E00E9469
:102FC00060198091E8008B778093E80008958091E4
:102FD000C603813209F081C08091CA039091CB036E
:102FE000029708F07AC08091E800877F8093E8001C
:102FF0008091E80082FD05C08091C5038111F8CF62
:103000006CC02091F3008091F20090E0922B029727
:1030100029F48091F1008B7F813021F48091F100BF
:10302000809313028091E8008B7753C08091C60390
:10303000813A09F052C08091CA039091CB03892B49
:1030400009F04BC08091E800877F8093E800809171
:10305000E80080FFFCCF80910C0136C08091C60350
:103060008132D9F58091CA039091CB03892BA9F5C0
:103070008091E800877F8093E8000E94541A809135
:10308000C80380930C010C94460E8091C6038132D4
:1030900021F58091E800877F8093E8000E94541A10
:1030A0008091C9038093140208958091C603813AE8
:1030B000A1F48091E800877F8093E8008091E80088
:1030C00080FFFCCF809114028093F1008091E80092
:1030D0008E778093E8000C94541A089584B7877F04
:1030E00084BF0FB6F894A8958091600088618093A2
:1030F0006000109260000FBE80E880936100109223
:1031000061000E9458090E94A61A0E94031B809128
:10311000E20084608093E20078940E94951D0E94F2
:10312000600982E091E00E94F1080E9468090E9413
:103130002C21FBCF0C949C18292F332723303105E9
:10314000C9F060F42130310581F02230310509F0F9
:103150004AC08BE390E02CEB33E049C021323105CB
:1031600011F12232310579F13EC082E190E027EF82
:1031700033E03DC099278130910561F040F0823005
:10318000910559F0039779F5EAE8F3E008C0E8EB18
:10319000F3E005C0E6EAF3E002C0E0E9F3E0849181
:1031A00090E09F0124C06115710541F06130710507
:1031B000D1F489E090E027EE33E019C089E090E097
:1031C0002EEC33E014C06115710541F061307105DA
:1031D00051F481E790E029E034E009C080E490E018
:1031E0002AE734E004C080E090E020E030E0FA011B
:1031F0003183208308950895CF93C82F0E94FB1830
:10320000C0930D01CF9108958091C503843021F0C2
:103210000E94BE2083E0089582E0089580910D0110
:10322000811102C00C9404190895CF92DF92EF929D
:10323000FF920F931F93CF93DF93EC018B017A01E1
:103240000E94731A811133C0E114F10439F0F701BF
:1032500080819181081B190BC80FD91FC12CD12C5B
:103260000115110519F18091E80085FD16C08091C6
:10327000E8008E778093E800E114F10449F0F7014B
:1032800080819181C80ED91ED182C08285E00FC095
:103290000E94731A882321F30AC089918093F10058
:1032A00001501109FFEFCF1ADF0ADACF80E0DF917A
:1032B000CF911F910F91FF90EF90DF90CF900895E5
:1032C0002091CC033091CD032617370748F06115C4
:1032D000710539F42091E8002E772093E80001C0B1
:1032E000B901FC0120E06115710579F18091C503F8
:1032F0008823F1F18530F1F18091E80083FD3CC035
:103300008091E80082FD2EC08091E80080FFEBCF25
:103310002091F3008091F20090E0922B61157105ED
:1033200051F08830910538F421912093F1006150DB
:1033300071090196F3CF21E0089709F020E0809110
:10334000E8008E778093E800CECF2111CFCF0AC05E
:103350008091C503882361F0853061F08091E80099
:1033600083FD0AC08091E80082FFF2CF80E00895DB
:1033700082E0089583E0089581E008952091CC03D0
:103380003091CD032617370748F06115710539F4E0
:103390002091E8002E772093E80001C0B901FC01DC
:1033A00020E06115710591F18091C503882309F42E
:1033B00040C0853009F43FC08091E80083FD3DC0E6
:1033C0008091E80082FD2FC08091E80080FFE9CF66
:1033D0002091F3008091F20090E0922B611571052D
:1033E00059F08830910540F424912093F1003196F2
:1033F000615071090196F2CF21E0089709F020E0B1
:103400008091E8008E778093E800CBCF2111CCCF5C
:103410000AC08091C503882361F0853061F08091F6
:10342000E80083FD0AC08091E80082FFF2CF80E0CF
:10343000089582E0089583E0089581E00895982F2B
:10344000973068F59093E900981739F07091EC0087
:103450002091ED005091F00003C0242F762F50E012
:1034600021FD02C09F5FECCF3091EB003E7F309397
:10347000EB003091ED003D7F3093ED003091EB009B
:1034800031603093EB007093EC002093ED0050938B
:10349000F0002091EE0027FDE5CF80E008958F70C9
:1034A0008093E90081E008958091C60387FF11C0F1
:1034B0008091E80082FD05C08091C5038111F8CF9D
:1034C00011C08091E8008B770BC08091C5038823E1
:1034D00049F08091E80080FFF8CF8091E8008E7776
:1034E0008093E80008952091E4003091E50095E68E
:1034F0004091EC00842F817040FF23C08091E80050
:1035000080FD1DC08091C503882399F0853099F016
:103510008091EB0085FD11C04091E4005091E500E1
:103520002417350729F3915011F09A01E1CF84E077
:10353000089582E0089583E0089581E0089580E091
:1035400008954091E80042FFDDCF08950E94141BCA
:103550000E941C1BE0EEF0E0808181608083E8ED3A
:10356000F0E080818F77808319BCA7EDB0E08C916B
:103570008E7F8C9380818F7E80831092C403089508
:103580000F931F93CF93DF930E94141B0E941C1B69
:10359000C8EDD0E088818F778883888180688883B0
:1035A00088818F7D888319BC1092C5031092C10356
:1035B0001092C3031092C20300EE10E0F801808164
:1035C0008B7F808388818160888342E060E080E037
:1035D0000E941F1AE1EEF0E080818E7F8083E2EE90
:1035E000F0E0808181608083808188608083F80141
:1035F00080818E7F8083888180618883DF91CF91F5
:103600001F910F910895E8EDF0E080818F7E808317
:10361000E7EDF0E080818160808384E082BF81E01B
:103620008093C4030C94C01AE8EDF0E080818E7F93
:1036300080831092E20008951092DA001092E10067
:1036400008951F920F920FB60F9211242F933F935C
:103650004F935F936F937F938F939F93AF93BF939A
:10366000EF93FF938091E10082FF0BC08091E20015
:1036700082FF07C08091E1008B7F8093E1000E9470
:10368000941D8091DA0080FF1DC08091D80080FFDA
:1036900019C08091DA008E7F8093DA008091D90082
:1036A00019BC80FF0BC082E089BD09B400FEFDCFCC
:1036B00081E08093C5030E94921704C01092C50355
:1036C0000E94A0178091E10080FF19C08091E20064
:1036D00080FF15C08091E2008E7F8093E200809190
:1036E000E20080618093E2008091D8008062809344
:1036F000D80019BC85E08093C5030E94A41780916F
:10370000E10084FF2FC08091E20084FF2BC019BC30
:1037100082E089BD09B400FEFDCF8091D8008F7D85
:103720008093D8008091E1008F7E8093E1008091AA
:10373000E2008F7E8093E2008091E20081608093BE
:10374000E2008091C103882311F084E007C08091DA
:10375000E30087FD02C081E001C083E08093C503E0
:103760000E94A5178091E10083FF29C08091E200AB
:1037700083FF25C08091E100877F8093E10082E094
:103780008093C5031092C1038091E1008E7F8093E6
:10379000E1008091E2008E7F8093E2008091E20060
:1037A00080618093E20042E060E080E00E941F1AA6
:1037B0008091F00088608093F0000E94A317FF9131
:1037C000EF91BF91AF919F918F917F916F915F9199
:1037D0004F913F912F910F900FBE0F901F90189512
:1037E0001F920F920FB60F9211242F933F934F9376
:1037F0005F936F937F938F939F93AF93BF93CF9379
:10380000DF93EF93FF93C091E900CF708091EC00BC
:10381000D82FD17080FDD0E81092E9008091F0009F
:10382000877F8093F00078940E94341C1092E90006
:103830008091F00088608093F000CD2BCF70C09312
:10384000E900FF91EF91DF91CF91BF91AF919F91EF
:103850008F917F916F915F914F913F912F910F9039
:103860000FBE0F901F9018951F93CF93DF93CDB786
:10387000DEB7AA970FB6F894DEBF0FBECDBFE6EC59
:10388000F3E08091F100819323E0EE3CF207C9F769
:103890000E94B1178091E80083FF2EC18091C6037A
:1038A0009091C703492F50E04A30510508F024C1D8
:1038B000FA01E556FF4F0C947222803821F08238CD
:1038C00009F01AC108C08091C2039091C3039923E3
:1038D00089F082600FC08091CA038F70873008F032
:1038E0000BC18093E9008091EB0085FB882780F96C
:1038F0001092E9009091E800977F9093E800809300
:10390000F1001092F100D1C0282F2D7F09F0F4C0F2
:10391000882319F0823061F0EFC08091C8038130B4
:1039200009F0EAC0933009F080E08093C3032EC011
:103930008091C80381112AC08091CA038F702FEF34
:10394000280F263008F0D8C08093E9002091EB00C2
:1039500020FF1CC0933021F48091EB00806214C0E2
:103960009091EB0090619093EB0021E030E0A90191
:1039700002C0440F551F8A95E2F74093EA00109267
:10398000EA008091EB0088608093EB001092E900E0
:103990008091E800877F8093E8000E94541AACC0B1
:1039A0008111AAC01091C8031F778091E30080782D
:1039B000812B8093E3008091E800877F8093E8006B
:1039C0000E94541A8091E80080FFFCCF8091E300B0
:1039D00080688093E300111102C082E001C083E09F
:1039E0008093C50389C08058823008F085C08091DB
:1039F000C8039091C9038C3D53E0950779F583E0A6
:103A00008A838AE289834FB7F894DE01139620E017
:103A10003EE051E2E32FF0E050935700E49120FFA5
:103A200003C0E295EF703F5FEF708E2F90E0EA30B9
:103A300010F0C79601C0C0968D939D932F5F2431DF
:103A400049F74FBF8091E800877F8093E8006AE2E2
:103A500070E0CE0101960E94601916C06091CA0301
:103A60007091CB03AE014F5F5F4F0E949A18BC016B
:103A7000892B09F441C09091E800977F9093E8006A
:103A800089819A810E94BE198091E8008B7780938A
:103A9000E80032C0803881F58091E800877F80930C
:103AA000E8008091C1038093F1008091E8008E7757
:103AB00072CF811121C08091C8039091C9039927C9
:103AC0000297D4F48091E800877F8093E80080918A
:103AD000C8038093C1030E94541A8091C1038111CD
:103AE00006C08091E30087FD02C081E001C084E050
:103AF0008093C5030E94A7178091E80083FF0AC046
:103B00008091E800877F8093E8008091EB008062DD
:103B10008093EB00AA960FB6F894DEBF0FBECDBF20
:103B2000DF91CF911F9108950895CF938091C503A0
:103B30008823A1F0C091E900CF709091EC00892F0B
:103B4000817090FD80E8C82B1092E9008091E80018
:103B500083FD0E94341CCF70C093E900CF9108957B
:103B6000662371F0FC019C01260F311DE217F3075B
:103B700038F41EBC0DB407FEFDCF8EB58193F6CF91
:103B80000895EF92FF920F931F93CF93DF93EC0171
:103B90007B010E9421168C0166990CC082E08A95F7
:103BA000F1F700C0C8010E942D168E159F05A0F3E5
:103BB00080E030C0809115028CBD809116028DBDD1
:103BC0002C981EBC00000DB407FEFDCF8EB5888377
:103BD0008E5F823070F42C9A82E48A95F1F700C0EF
:103BE0002C98C8010E942D168E159F0550F380E079
:103BF00010C063E0CE0101960E94B01D6B816F770B
:103C0000862F90E0419724F4CE0104960E94B01DC7
:103C100081E02C9ADF91CF911F910F91FF90EF904F
:103C20000895EF92FF920F931F93CF93DF93EC01D0
:103C30008B01809115028CBD809116028DBD2C9850
:103C40000E9421167C0188818EBD00000DB407FE04
:103C5000FDCF8EB58E3FB9F42C9A22E42A95F1F768
:103C600000C02C98C7010E942D168017910758F3A9
:103C700080E001C081E02C9ADF91CF911F910F91DC
:103C8000FF90EF900895FE0131968B818F778D5FC5
:103C90009F01280F311DC901E817F90758F7219135
:103CA0002EBD0DB407FEFDCFF7CF1F93CF93DF934B
:103CB000CDB7DEB764970FB6F894DEBF0FBECDBFA9
:103CC000E0911C0290911B02E91709F43FC0182FE4
:103CD000669B21C066E970E0CE0101960E94C11D7D
:103CE0008823A1F18C8187FD0DC020911C02809159
:103CF0001B02281759F130E02F5F3F4F2170332707
:103D000020931C02112311F190911C0280911B023F
:103D100098131AC01BC0F0E0EE0FFF1FE95EFD4FC5
:103D2000808191810E942D168D32914078F0809192
:103D30001C0290911B02891749F090E00196817056
:103D4000992780931C0202C06699C4CF64960FB66F
:103D5000F894DEBF0FBECDBFDF91CF911F910895C4
:103D60006F927F928F929F92AF92BF92CF92DF928B
:103D7000EF92FF920F931F93CF93DF93CDB7DEB7F0
:103D8000A8970FB6F894DEBF0FBECDBF7C018B01A4
:103D90006A014901FC0101900020E9F7CF01019778
:103DA0005C01672B61F090911B0280911C029817B7
:103DB00021F081E00E94551EF6CFF801108240E10B
:103DC000742E5AE0652EA5014E195F09888D413188
:103DD0005105DCF07D8A1E8A6F8A80788061806858
:103DE000888FF701DE015996872D01900D928A95F3
:103DF000E1F7B401CE0145960E94111E882309F413
:103E000064C0F0E1EF0EF11CDECF80E18D8B1E8AE5
:103E10008AE08F8B842F8F77888F5527B701CE014B
:103E200049960E94CC22B401CE0145960E94111EF3
:103E3000F82E882309F449C001151105E1F40E9408
:103E400021168C0180911B0290E09C012F5F3F4F57
:103E50002170332740911C02421709F45AC0880F81
:103E6000991FFC01E95EFD4F1183008320931B0223
:103E70000E94211652C05801AC0CBD1C78016CE2A6
:103E800071E0CE0101960E94C11D8823F1F0898165
:103E9000803219F0F801108218C08C818F77CA2CFB
:103EA000CE188C1508F4C82ECC2051F0D12CA601C8
:103EB000BE016B5F7F4FC7010E94CC22EC0CFD1C42
:103EC0008C8187FDDCCFF70106C0F12C26C07F0175
:103ED00080818A3039F41082F70131970E171F075D
:103EE000B0F302C08D30B9F36AE070E0C8010E94FF
:103EF000D522009719F08C010F5F1F4F6CE475E01D
:103F0000C8010E94B32221E0892B09F020E0F22EA3
:103F100004C080E00E94551E95CF8F2DA8960FB645
:103F2000F894DEBF0FBECDBFDF91CF911F910F91EF
:103F3000FF90EF90DF90CF90BF90AF909F908F90C9
:103F40007F906F9008958F929F92AF92BF92CF9281
:103F5000DF92EF92FF920F931F93CF93DF93CDB732
:103F6000DEB77C015B014A01CDB6DEB60E94C322FA
:103F700001962DB73EB7281B390B0FB6F8943EBFFC
:103F80000FBE2DBF0DB71EB70F5F1F4FB701C80182
:103F90000E94BC2226E930E0A401B501C8010E94BC
:103FA000B01E0FB6F894DEBE0FBECDBEDF91CF912E
:103FB0001F910F91FF90EF90DF90CF90BF90AF9047
:103FC0009F908F9008959F92AF92BF92CF92DF9271
:103FD000EF92FF920F931F93CF93DF93CDB7DEB78E
:103FE000CA57D1090FB6F894DEBF0FBECDBF8C0102
:103FF00090911B0280911C0298139AC09091AE037D
:104000008091AD03981709F493C08AE0899F9001CD
:104010001124235E3D4FF901DE01AF58BF4F0190DF
:104020000D928A95E1F7F901F080D580C680B780BE
:10403000A08491840E9421169093BA038093B903BF
:10404000FF2011F1F1E0FF1258C06AEB74E09E010D
:104050002F5F3F4F7901C9010E94BC22E6968FADC8
:10406000E6978F93E5968FADE5978F93FF92EF924A
:104070001F9280E38F937E0131E4E30EF11CFF92E7
:10408000EF920E94E8222AC065ED74E09E012F5F46
:104090003F4F7901C9010E94BC221F929F921F923B
:1040A000AF921F92BF921F92CF921F92DF92E6961D
:1040B0008FADE6971F928F93E5968FADE5971F9290
:1040C0008F93FF92EF921F9280E38F937E0131E4F2
:1040D000E30EF11CFF92EF920E94E822980140E06B
:1040E00050E060E070E0C7010E94B01E0FB6F89487
:1040F000DEBF0FBECDBF882379F08091AE039091D3
:10410000AD038917A9F090E0019668E270E00E9483
:104110005E228093AE030CC0FFE729EA33E0F15042
:1041200020403040E1F700C0000081E00E94551EB1
:10413000C658DF4F0FB6F894DEBF0FBECDBFDF917C
:10414000CF911F910F91FF90EF90DF90CF90BF9094
:10415000AF909F90089520E5FC01208321E021830A
:104160009FB7F894289A209A8CB580618CBD8CB545
:1041700080648CBD219A229A9FBF08958091AF03DD
:1041800008950F931F93CF93DF93CDB7DEB7C25837
:10419000D1090FB6F894DEBF0FBECDBF8091B0033A
:1041A000811122C01092B1031092AF036E987698DD
:1041B000249A2C9A85E192E00E94AB20549A5C9A52
:1041C0005C988FE19EE40197F1F700C000005C9AD3
:1041D0009FEF29E688E1915020408040E1F700C040
:1041E000000081E08093B0031092B1030CEA15E067
:1041F00042E050E0B801CE018F579F4F0E94AA22A3
:1042000040E850E0BE016F5F7F4FCF57DF4F88819E
:104210009981C158D0400E94A31F882379F00E5F76
:104220001F4F95E0083B190719F781E08093B10310
:104230000E9421169093BA038093B9038091B10331
:10424000CE57DF4F0FB6F894DEBF0FBECDBFDF9164
:10425000CF911F910F910895CF93DF93CDB7DEB724
:10426000E0970FB6F894DEBF0FBECDBF8091B103CB
:10427000811105C00E94C120882309F479C081E022
:104280000E94551E8AE090E00E94E31F8091B903CE
:104290009091BA030E942D16893E9340C8F18091F7
:1042A000B203811117C040E350E0BE016F5F7F4F42
:1042B00089E395E00E94A31F882349F040E350E082
:1042C000BE016F5F7F4F86E295E00E94A31F81E0F1
:1042D0008093B2030E9421169093BA038093B9038E
:1042E00040E350E0BE016F5F7F4F88E195E00E94A0
:1042F000A31F882369F0CE0101960E948C2221E041
:10430000892B09F420E08091AF0382132093AF033F
:104310008091B3039091B4030E942D16813197428E
:1043200038F190911B0280911C02981321C00E94C9
:1043300021169093B4038093B30340E350E0BE0191
:104340006F5F7F4F8EE095E00E94A31F882381F06E
:10435000CE0101960E948C22092E000CAA0BBB0BE9
:104360008093B5039093B603A093B703B093B803BB
:10437000E0960FB6F894DEBF0FBECDBFDF91CF91B0
:1043800008957F928F929F92AF92BF92CF92DF92C9
:10439000EF92FF920F931F93CF93DF93A82EEB0121
:1043A000142F0E9421167C0188E2C82ED12C9AE09D
:1043B000992E112381F08980123010F00A8101C0FA
:1043C00000E0133050F07B80143040F0BC8015309A
:1043D00030F04D8105C0812C00E0712CB12C40E003
:1043E0002091AD0330E0C9010196B6010E945E2222
:1043F0009091AE039817C9F09881929EF001939E18
:10440000F00D1124E35EFD4F1082F282E182A3825F
:104410009483858206837782B08641878093AD033B
:10442000173040F016502696C4CF86E990E00E94DF
:10443000E31FBFCF81E0DF91CF911F910F91FF90DC
:10444000EF90DF90CF90BF90AF909F908F907F9034
:1044500008950F931F93CF93DF93EC0108E210E0D0
:104460002091AD0330E0C9010196B8010E945E229F
:104470009091AE03981305C086E990E00E94E31F77
:10448000EFCF9AE0929FF001939FF00D1124E35E2D
:10449000FD4F91E09083D483C3838093AD0381E08B
:1044A000DF91CF911F910F9108951092AD0310925B
:1044B000AE03E7E1F2E014821582089597FB072E20
:1044C00016F4009407D077FD09D00E94782207FCEB
:1044D00005D03EF4909581959F4F08957095619514
:1044E0007F4F0895EE0FFF1F0590F491E02D099482
:1044F000AA1BBB1B51E107C0AA1FBB1FA617B7070A
:1045000010F0A61BB70B881F991F5A95A9F7809525
:104510009095BC01CD010895FC0188279927E89466
:1045200021912032E9F3293010F02E30C8F32B32DC
:1045300041F02D3239F4689404C00E94E022820FC9
:10454000911D219120532A30C0F31EF4909581953E
:104550009F4F0895FB01DC0102C005900D92415070
:104560005040D8F70895FB01DC018D91059080192A
:104570000110D9F3990B0895FB01DC0105900D9210
:104580000020E1F70895FC0105900020E9F78095EF
:1045900090958E0F9F1F0895FB01DC0102C00190D2
:1045A0000D9241505040D8F70895FC0181E090E011
:1045B0000190061609F4CF010020D1F70197089564
:1045C0007AE0979F902D879F802D910D112408955B
:1045D000AEE0B0E0EEEEF2E20C94F9250D891E8912
:1045E0008F89988D26E02C831A83098397FF02C058
:1045F00080E090E801979E838D83AE01455E5F4F1A
:10460000698D7A8DCE0101960E9418234D815E81BD
:1046100057FD0AC02F813885421753070CF49A01C1
:10462000F801E20FF31F10822E96E4E00C94152699
:10463000ABE0B0E0EEE1F3E20C94EB256C017B0122
:104640008A01FC0117821682838181FFCCC1CE01D1
:1046500001963C01F6019381F70193FD859193FF4B
:1046600081917F01882309F4BAC1853239F493FD21
:10467000859193FF81917F01853229F4B60190E005
:104680000E940F25E7CF912C212C312CFFE1F3154F
:10469000D8F08B3279F038F4803279F08332A1F49B
:1046A000232D20611DC08D3261F0803369F4232DEC
:1046B000216016C0832D8260382EE32DE4603E2EEB
:1046C0002AC0F32DF8601DC037FC2DC020ED280F47
:1046D0002A3040F08E32B9F436FC81C1232D20649B
:1046E000322E19C036FE06C08AE0989E200D112495
:1046F000922E11C0EAE02E9E200D1124222EF32DC1
:10470000F0623F2E08C08C3621F4832D8068382E4D
:1047100002C0883641F4F70193FD859193FF8191A2
:104720007F018111B3CF982F9F7D9554933028F44A
:104730000C5F1F4F9FE399830DC0833631F08337A1
:1047400071F0833509F059C021C0F8018081898357
:104750000E5F1F4F88248394912C530113C02801AE
:10476000F2E04F0E511CF801A080B18036FE03C06C
:10477000692D70E002C06FEF7FEFC5010E94042534
:104780004C018201F32DFF773F2E16C0280122E055
:10479000420E511CF801A080B18036FE03C0692D85
:1047A00070E002C06FEF7FEFC5010E94F9244C0159
:1047B000F32DF0683F2E820133FC1BC0822D90E068
:1047C00088169906B0F4B60180E290E00E940F25A9
:1047D0002A94F4CFF50137FC859137FE81915F0172
:1047E000B60190E00E940F2521102A9421E0821A40
:1047F00091088114910471F7E8C0843611F089366C
:1048000041F5F80137FE07C0608171818281938193
:104810000C5F1F4F08C060817181072E000C880B50
:10482000990B0E5F1F4FF32DFF763F2E97FF09C0A8
:1048300090958095709561957F4F8F4F9F4FF06851
:104840003F2E2AE030E0A3010E944B25882E8618D7
:1048500045C0853731F4232D2F7EB22E2AE030E07B
:1048600025C0932D997FB92E8F36C1F018F4883565
:1048700079F0B5C0803719F0883721F0B0C0E92F42
:10488000E061BE2EB4FE0DC0FB2DF460BF2E09C04A
:1048900034FE0AC0292F2660B22E06C028E030E080
:1048A00005C020E130E002C020E132E0F801B7FEAF
:1048B00007C060817181828193810C5F1F4F06C0A8
:1048C0006081718180E090E00E5F1F4FA3010E9424
:1048D0004B25882E8618FB2DFF773F2E36FE0DC008
:1048E000232D2E7FA22E891458F434FE0BC032FCE7
:1048F00009C0832D8E7EA82E05C0B82CA32C03C022
:10490000B82C01C0B92CA4FE0FC0FE01E80DF11DAA
:104910008081803321F49A2D997EA92E09C0A2FEB0
:1049200006C0B394B39404C08A2D867809F0B3947A
:10493000A3FC11C0A0FE06C0B21488F4280C922C6F
:104940009B180EC0B21460F4B60180E290E00E94A1
:104950000F25B394F7CFB21418F42B1802C0982C7B
:10496000212CA4FE10C0B60180E390E00E940F2528
:10497000A2FE17C0A1FC03C088E790E002C088E552
:1049800090E0B6010CC08A2D867859F0A1FE02C0D5
:104990008BE201C080E2A7FC8DE2B60190E00E94AC
:1049A0000F25891438F4B60180E390E00E940F25AA
:1049B0009A94F7CF8A94F301E80DF11D8081B60136
:1049C00090E00E940F258110F5CF222009F442CEFD
:1049D000B60180E290E00E940F252A94F6CFF601FE
:1049E0008681978102C08FEF9FEF2B96E2E10C94B6
:1049F0000726FC010590615070400110D8F78095A2
:104A000090958E0F9F1F0895FC016150704001909A
:104A10000110D8F7809590958E0F9F1F08950F93E2
:104A20001F93CF93DF93FB01238121FD03C08FEF01
:104A30009FEF2CC022FF16C046815781248135810B
:104A40004217530744F4A081B1819D012F5F3F4F6E
:104A5000318320838C93268137812F5F3F4F3783AB
:104A6000268314C08B01EC01FB010084F185E02D4D
:104A70000995892BE1F6D80116968D919C9117978F
:104A8000019617969C938E931697CE01DF91CF9146
:104A90001F910F910895FA01AA27283051F1203172
:104AA00081F1E8946F936E7F6E5F7F4F8F4F9F4FC2
:104AB000AF4FB1E03ED0B4E03CD0670F781F891F04
:104AC0009A1FA11D680F791F8A1F911DA11D6A0FD2
:104AD000711D811D911DA11D20D009F468943F9185
:104AE0002AE0269F11243019305D3193DEF6CF0184
:104AF0000895462F4770405D4193B3E00FD0C9F74A
:104B0000F6CF462F4F70405D4A3318F0495D31FDB6
:104B10004052419302D0A9F7EACFB4E0A695979509
:104B2000879577956795BA95C9F7009761057105DF
:104B300008959B01AC010A2E069457954795379529
:104B40002795BA95C9F7620F731F841F951FA01D83
:104B50000895F999FECF92BD81BDF89A992780B545
:104B60000895A8E1B0E042E050E00C94DD25262F46
:104B7000F999FECF92BD81BDF89A019700B4021653
:104B800039F01FBA20BD0FB6F894FA9AF99A0FBE01
:104B900008950396272F0E94B8250E94B725252F38
:104BA0000E94B825242F0C94B8250196272F0E9427
:104BB000B8250C94B725DC01CB01FC01F999FECF97
:104BC00006C0F2BDE1BDF89A319600B40D92415095
:104BD0005040B8F708952F923F924F925F926F9294
:104BE0007F928F929F92AF92BF92CF92DF92EF927D
:104BF000FF920F931F93CF93DF93CDB7DEB7CA1BFE
:104C0000DB0B0FB6F894DEBF0FBECDBF09942A8828
:104C1000398848885F846E847D848C849B84AA84D0
:104C2000B984C884DF80EE80FD800C811B81AA815D
:104C3000B981CE0FD11D0FB6F894DEBF0FBECDBF28
:084C4000ED010895F894FFCF87
:104C4800CE01BA163C17BD160617BE16010495F01C
:104C5800F16766909192939736F6F7F5F4359600DA
:00000001FF
