:100000000C94D1030C9423040C9423040C94230427
:100010000C9423040C9423040C9423040C942304C4
:100020000C9423040C9423040C9421200C94F020B1
:100030000C94381A0C9423040C9423040C94230479
:100040000C9423040C9423040C9423040C94230494
:100050000C9423040C94AC1A0C9423040C942304E5
:100060000C9423040C9423040C9423040C94230474
:100070000C9423040C9423040C9423040C94230464
:100080000C9423040C9423040C9423040C94230454
:100090000C9423040C9423040C9423040C94230444
:1000A0000C9423040C9423040C94230467046A0422
:1000B000E00475047D048804E004E004E004CE0458
:1000C000D1048B048E049304A004AD04B004B404E2
:1000D000C10405070707120709070B070D070F07DC
:1000E000110714071607180723071A071C071E070E
:1000F0002007220725076610661098109810D61062
:100100000E120E120E12F4100E128D118D11FE1120
:100110000E120E1207129A119A119A119A119A112F
:100120009A119A119A119A119A119A119A119A1177
:100130009A119A119A11AB11B911C011C711D111AD
:100140009B129B12AD12AD12A412AD12AD12AD12E4
:100150009B129B12A912AD12AD12A9125D2184212E
:100160007C2284217C22D021F3217C224A22592224
:1001700003516200E0002F0000002C000000E700A7
:10018000000059005B00E1001B0019000251100043
:100190003700E5005C005E002B00160009000B0034
:1001A0000E00340000005F00610029001A001500F5
:1001B0001C000C0013002A00600055001400080009
:1001C0001700180012004C0000005D0056000400EB
:1001D00007000A000D000F00000028005A00570019
:1001E0001D00060005001100360038000000630005
:1001F0005800E2000000015100002D000000E40062
:10020000BF5C010001000100000001000000A80027
:1002100000000100010001000100010001000100D7
:10022000010001000100010039000100010001008E
:100230005100330000000100010035001F002100C3
:100240000100520001004C00010001001E002000CE
:100250002200010001000100000001000100010076
:100260000100010050004F000000310001000100BA
:100270000100010001000100010001000000C05C5C
:1002800001000100000001000000AA0000000100C0
:100290001B001900E000300000002C000000E3000B
:1002A000000016000900E1001B00190003511000B6
:1002B0003700E1001A0015002B00160009000B00A2
:1002C0000E00340000001F00210029001A00150054
:1002D0001C000C0013002A0020004200140008003B
:1002E00017001800120001000000080017000400A9
:1002F00007000A000D000F000000280007000A0098
:100300001D00060005001100360038000000060040
:100310000500E2000000055100002D00000004511E
:1003200001000100010001000000010000000100C7
:1003300000000100010001000100010001000100B6
:1003400001000100010001000100010001000100A5
:10035000010001000000005C010001001F002100FD
:100360002300250027000100010001001E002000DD
:10037000220024002600010000000100010001000D
:100380000100010001000100000001000100010066
:100390000100010001000100010001000000010056
:1003A0000100010000000100000001000000010048
:1003B00000000000000000002A2B280000000000C0
:1003C0000000000000000000000000290000000004
:1003D0002C1E3420212224342627252E362D373872
:1003E000271E1F202122232425263333362E37387B
:1003F0001F0405060708090A0B0C0D0E0F10111239
:10040000131415161718191A1B1C1D2F3130232D04
:10041000350405060708090A0B0C0D0E0F10111202
:10042000131415161718191A1B1C1D2F3130354CB3
:1004300000000000000000000000000000000000BC
:1004400000000000000000000000000000000000AC
:10045000000000000000000000000000000000009C
:10046000000000000000000000000000000000008C
:10047000000000000000000000000000000000007C
:10048000000000000000000000000000000000006C
:10049000000000000000000000000000000000005C
:1004A000000000000000000000000000000000004C
:1004B000000000000000000000000000000000003C
:1004C000000000000000000000000000000000002C
:1004D0000001010101010100010101010000000012
:1004E0000000000000000000000001000100010108
:1004F00001010101010101010101010101010101EC
:1005000001010101010101010101010000000101DE
:1005100000000000000000000000000000000000DB
:1005200000000000000000000000000101010100C7
:1005300004033000000014035000720069006D00D5
:1005400065005F0042004C004500000010035000B1
:10055000720069006D0065004B004200000004035A
:10056000090409025B00030100A0FA09040000016C
:10057000030101000921110100012240000705814A
:100580000308000A09040200010300000009211108
:100590000100012271000705840320000A090401FB
:1005A00000020300000009211101000122220007BE
:1005B000058203200001070503032000011201103A
:1005C000010000000852508065010001020301068D
:1005D00060FF0961A1010962150026FF00952075E1
:1005E0000881020963150026FF0095207508910215
:1005F000C005010980A10185031601002603001A28
:1006000081002A8300751095018100C0050C090145
:10061000A1018504160100269C021A01002A9C02F1
:10062000751095018100C005010906A10185050528
:100630000719E029E71500250195087501810205D4
:100640000819012905950575019102950175039118
:10065000010507190029EF1500250195F0750181A5
:1006600002C005010906A101050719E029E71500E7
:10067000250195087501810295017508810105081C
:1006800019012905950575019102950175039101DF
:100690000507190029FF150026FF0095067508813A
:1006A00000C041542B424C45484944434F4E54529C
:1006B0004F4C4B45593D3078253034780041542B10
:1006C000424C454B4559424F415244434F44453DAE
:1006D000253032782D30302D253032782D253032AE
:1006E000782D253032782D253032782D253032780E
:1006F0002D253032780041542B4857564241540042
:1007000041542B474150474554434F4E4E004154AE
:100710002B4556454E54454E41424C453D3078326E
:100720000041542B4556454E54454E41424C453DA3
:10073000307831004F4B004154453D300041542B3F
:100740004741504445564E414D453D5072696D6597
:100750005F424C450041542B424C45484944454E6C
:100760003D310041542B474150494E54455256416A
:100770004C533D31302C33302C2C0041545A004125
:10078000542B424C45504F5745524C4556454C3DD5
:100790002D313200370763073D0755077F077B0779
:1007A000552711241FBECFEFDAE0DEBFCDBF04B660
:1007B00003FE27C08091DC039091DD03A091DE034E
:1007C000B091DF038730904BA740B04BD1F410922B
:1007D000DC031092DD031092DE031092DF0314BEDF
:1007E00084B7877F84BF0FB6F894A8958091600086
:1007F000886180936000109260000FBEE0E0F8E333
:10080000099511E0A0E0B1E0E8E4F6E502C005904A
:100810000D92AE32B107D9F723E0AEE2B1E001C0EC
:100820001D92AC3DB207E1F713E0C1EDD3E004C087
:100830002197FE010E947227C03DD107C9F70E948F
:10084000F51C0C94222B0C94000080E290E00E9496
:10085000B12A8F31954451F482E290E00E94A92A96
:1008600091E0883009F090E0892F01C080E081702C
:100870000895CF93C82F811103C06FEF7FEF02C09F
:100880006FE175E480E290E00E94D52AC11102C0B8
:100890006FEF01C068E082E290E0CF910C94B72A3C
:1008A00080E00E9439040C941D191F93CF93DF93AD
:1008B000EC01162FE8818E2F90E0FC013197E33197
:1008C000F10508F07DC0EA5AFF4F0C947227198297
:1008D00088E027C08981813009F072C00E94761AB1
:1008E0009A838B837C836D836DC04B816A81898100
:1008F0000E94130B9C838D8365C02C813D81322720
:10090000232732274B816A8189810E942C0B5AC090
:100910000E94410B57C00E94D30B24C00E94D50BEC
:1009200099838A834FC06B8170E089819A81AE017F
:100930004C5F5F4F9827892798270E94D80B42C0A9
:100940006B8170E089819A81AE014C5F5F4F98277F
:10095000892798270E94FD0B35C00E94200C32C0C9
:100960000E94000B89832EC06B8170E089819A817F
:10097000AE014C5F5F4F9827892798270E94800B14
:1009800021C06B8170E089819A81AE014C5F5F4F1D
:100990009827892798270E94A40B14C00E9450040E
:1009A00011C0CE010E94E51B2FEF80E792E021509D
:1009B00080409040E1F700C000000E94D21A02C0BF
:1009C0008FEF8883612FCE01DF91CF911F910C941F
:1009D000E51B0E942504811107C00E94410B0E9463
:1009E000200C81E00C94390408950E94260A8FE0BF
:1009F00097E20197F1F700C000008FE097E20197BE
:100A0000F1F700C000000E94260A80E00E94CF0992
:100A100080FF04C00E9450040C94D21A08950E94D2
:100A2000F5040E94E9040C9441050C944405FB0173
:100A300022818031FFE59F0731F081313FE5930747
:100A400081F482E001C081E0222319F00E94F616B1
:100A500002C00E94171743E062E081E00E94430653
:100A60000EC0222351F09C0122513F452031310517
:100A700020F482510E94300C02C00C944D0580E09D
:100A80000895279A2F980895089580FF02C02F9AFD
:100A900008952F98089581E0089581E008951F93A7
:100AA000CF93DF9300D000D01F92CDB7DEB749833C
:100AB0005A836B8320916C0189819A81211112C024
:100AC000662349F00E94EB17182F682F89819A81BD
:100AD0000E94941703C00E94BF17182F69817A8162
:100AE000812F04C00E94EB1769817A810F900F90CB
:100AF0000F900F900F90DF91CF911F910C94C60B28
:100B0000FC01408151816281738184810C944F0585
:100B10001F93CF93DF9390E0FC01E055FC4F1491BD
:100B2000FC01E055FB4FD491FC01E05DFB4FC4910B
:100B3000DD2319F081EE0E949A0ECC2319F086EE87
:100B40000E949A0E812F0E941010CC2319F086EE7D
:100B50000E94B10FDD2331F081EEDF91CF911F9123
:100B60000C94B10FDF91CF911F910895FF920F93D5
:100B70001F93CF93DF93EC01F62E8881882331F108
:100B80008E010F5F1F4F813031F4C9818C2F0E947D
:100B90009A0E8C2F0AC0823029F489810E949A0E05
:100BA000E80108C0833021F489810E94B10FF8CF99
:100BB0000E94880521968F2D8823F9F2EFECF7E04B
:100BC0003197F1F700C000008150F6CFDF91CF914F
:100BD0001F910F91FF90089560E00C94B6058F92DD
:100BE0009F92AF92BF92CF92DF92EF92FF920F93BC
:100BF0001F936B017C0181E090E0A0E0B0E04C012C
:100C00005D0104C0880C991CAA1CBB1C4A95D2F734
:100C1000AC01BD0104C0440F551F661F771F2A9504
:100C2000D2F7482959296A297B2904C0880F991FBE
:100C3000AA1FBB1F0A95D2F78A019B010C211D2117
:100C40002E213F21401751076207730739F4BC0179
:100C5000CD016C297D298E299F290AC08095909508
:100C6000A095B095BC01CD016C217D218E219F21E5
:100C70001F910F91FF90EF90DF90CF90BF90AF90BA
:100C80009F908F9008950F93382F262F6091D20157
:100C90007091D3018091D4019091D501042F432FFD
:100CA0000E94EF050F910C94D0160E942319811118
:100CB00002C00E949D190C940F050C9415050C940C
:100CC00045050C945F0608950E9489120E946306F0
:100CD0002FE78AE196E0215080409040E1F700C084
:100CE00000000C94D21A0F931F93CF93DF938C01C3
:100CF0000E948005EC01B8010E941705882309F4C1
:100D0000E1C0B801CE010E94F30C882309F4DAC0D7
:100D1000C631FCE5DF0739F50E946C18982FF80101
:100D200082812091000130910101882379F09A7A23
:100D300081E009F480E080932E01911102C069E204
:100D400001C065E3C9010E94051A0AC080912E0105
:100D5000811102C069E201C065E3C9010E94101A55
:100D60000E94BA18AFC0C7318CE5D80708F07DC023
:100D7000C130ECE5DE0771F4F8018281882309F4C3
:100D8000A1C08091FF01982F909590FB80F98093EE
:100D9000FF0198C0C230FCE5DF0758F4C115DC45FF
:100DA00081F4F8018281882309F48CC00E946406D2
:100DB00089C0C531ECE5DE0720F4F801828181119C
:100DC00007C0C801DF91CF911F910F910C944B0583
:100DD0000E942319811102C00E949D190E94361998
:100DE00090E09093CE038093CD03FE01E350FC4549
:100DF000E231F10530F4E759FF4F8091CD030C94B7
:100E000072278091CD03816027C0826025C08460F5
:100E100023C0806121C080621FC080641DC08068C3
:100E20001BC08460886018C08E7F16C08D7F14C080
:100E30008B7F12C08F7E10C08F7D0EC08F7B0CC049
:100E40008F770AC08B7F877F07C087FB222720F917
:100E500091E0922790FB87F98093CD038091CD0399
:100E60000E943A190E9489122DC0CD3DFCE5DF0792
:100E700041F4F8018281882329F182E00E94B11DAA
:100E800021C0CE3D8CE5D80750F4CC3DDC4509F0BF
:100E900098CFF80182818823A9F080E0EFCFCE3D82
:100EA000FCE5DF0731F4F8018281882359F083E003
:100EB000E5CFCF3DDC4509F084CFF8018281811177
:100EC0000E949D1980E0DF91CF911F910F910895AD
:100ED00080E090E008950895880F991FFC01E05D7F
:100EE000FA4F859194910895CF93DF930E94C60B9A
:100EF0000E943009EC018115904508F041C0C115F0
:100F000080E4D80708F028C1C83ED10510F5C03EDE
:100F1000D10508F0A1C1C83AD10578F4C53AD10588
:100F200008F0A2C0C130D10509F496C108F447C148
:100F3000C430D10508F090C142C1CF3BD10508F4BF
:100F40009EC0C03CD10508F43AC1CE01805C910935
:100F5000F5C0C11590E2D90758F4C11521E0D207B8
:100F600008F07AC1C03FD10508F429C1D06574C129
:100F7000C11580E3D80708F0E5C0CE019F70DEC040
:100F8000C11595E5D90708F043C0C11524E5D2077E
:100F900008F0F9C0C11582E5D80708F5C11591E53B
:100FA000D90708F0DCC0CE0174E0969587957A9554
:100FB000E1F783709C2F937021E030E002C0220F94
:100FC000331F9A95E2F73C68382BCF70C695C695CB
:100FD00080E2C89FE0011124C22BD32B3DC19E01AA
:100FE000237033278C2F86958695C115D34508F03D
:100FF000BBC0C1E0D0E002C0CC0FDD1F2A95E2F7F4
:1010000020E2829FC0011124C82BD92BDC6824C1A7
:10101000C11529E5D207A0F4C11588E5D80708F065
:10102000B7C0C11596E5D90708F0C9C08C2F0E943A
:10103000AC098F71C82FD0E0DC2FCC27D0620CC157
:10104000C1152AE5D20708F4A8C0CE019056811533
:10105000904208F0B4C08D2F8F710E94AC09DD273B
:10106000D0628F71D82BF8C0C53AD10509F4AAC057
:10107000C63AD10509F0A9C0C2E8D0E4EDC0C83A2B
:10108000D10509F4A5C0C93AD10509F4A4C0CA3AEA
:10109000D10509F4A3C0CB3AD10509F4A2C0CC3ADA
:1010A000D10509F4A1C0CB3BD10509F4A0C0CC3BCC
:1010B000D10509F49FC0CD3AD10509F49EC0C03BCB
:1010C000D10509F49DC0CE3AD10509F49CC0CF3AB0
:1010D000D10509F49BC0C13BD10509F49AC0C23BBC
:1010E000D10509F499C0C33BD10509F498C0C43BAC
:1010F000D10509F497C0C53BD10509F496C0C63B9C
:10110000D10509F495C0C73BD10509F494C0C83B8B
:10111000D10509F493C0C93BD10509F492C0CD3B78
:10112000D10509F491C0CE3BD10509F490C0CA3B6A
:10113000D10509F48FC0C0E0D4E48EC00E946C07D2
:10114000EC018AC0CE019927D3FF03C0EC01D86C13
:1011500083C0EC01D06C80C0DF70D06A7DC0DC2F12
:10116000CC27C16FD06A78C0C1E0D0E002C0CC0FFC
:10117000DD1F2A95E2F720E2829FC0011124C82BCF
:10118000D92BDA6869C0DC2FCC27C46FD06A64C061
:10119000DC2FCC27C06FD06A5FC08C2F8F700E946D
:1011A000AC0994E0D695C7959A95E1F7CF70D0E059
:1011B000DC2FCC27D06A8F70806EC82B4DC0C0E06A
:1011C000D0E04AC0C1E8D0E447C0C3E8D0E444C09E
:1011D000C2EED4E441C0C9EED4E43EC0CAEED4E4C9
:1011E0003BC0C5EBD4E438C0C6EBD4E435C0C3EB98
:1011F000D4E432C0C4EBD4E42FC0C7EBD4E42CC099
:10120000CCECD4E429C0CDECD4E426C0C3E8D5E4CA
:1012100023C0CAE8D5E420C0C2E9D5E41DC0C4E9B2
:10122000D5E41AC0C1E2D6E417C0C3E2D6E414C0C4
:10123000C4E2D6E411C0C5E2D6E40EC0C6E2D6E4EC
:101240000BC0C7E2D6E408C0CFE6D4E405C0C0E7CF
:10125000D4E402C0CAE2D6E4CE01DF91CF91089572
:101260008238910549F1B0F48133910509F459C0F0
:1012700048F48932910509F44FC08A32910509F486
:1012800055C008958533910509F441C0893391050E
:1012900099F00895833E910531F138F4803E91052F
:1012A00091F0823E9105A9F00895863E910501F1E5
:1012B000873E910539F108952091CD0320FD3BC073
:1012C00021FD39C008958091CD0380FF34C089E3AA
:1012D00041C08091CD0382FF30C08091CD0384FD59
:1012E0002EC083EE37C08091CD0382FD26C0F5CF9E
:1012F0008091CD0383FF25C08091CD0384FD1FC065
:1013000087EE28C08091CD0383FD1BC0F5CF80916F
:10131000CD0385FD18C019C08091CD0385FD15C092
:1013200012C08091CD0386FD12C013C08091CD0301
:1013300086FD0FC00CC080EE0DC082EE0BC080E0B9
:1013400009C086EE07C089E205C085E303C08AE2D2
:1013500001C081E390E008959091CD0392FF0DC00C
:10136000282F2871283019F4877F846006C0282F21
:101370002471243011F48B7F886093FF0DC0282FD7
:101380002871283119F4877E846106C0282F2471C2
:10139000243111F48B7E886194FD877E0895E82FB7
:1013A000F0E0EE0FFF1FE15DFE4F80819181089517
:1013B0000895CF93DF93A7E1B1E04FE151E061E001
:1013C00070E08D91E82FE295EF70F0E091A18F70C1
:1013D0009B0101C0220F8A95EAF7822F809589230D
:1013E00081A34A175B0769F7AEE0B1E047E151E03E
:1013F00061E070E08D91E82FE295EF70F0E021A1BF
:101400008F70EB0102C0CC0FDD1F8A95E2F7CE0191
:101410009C2F9095922391A392A1892B82A34A1786
:101420005B0741F7EFE3F1E0AFE2B1E08FE491E079
:10143000119211921D921D928E179F07C9F788E095
:101440000E94C50ADF91CF910C9455063F924F92AE
:101450005F926F927F928F929F92AF92BF92CF9244
:10146000DF92EF92FF920F931F93CF93DF9367E189
:1014700071E0AFE3B1E02FE4622E21E0722E412C47
:1014800001E010E05D018D909C90119711961C92E7
:101490001E92EB018991BE01E82FE295EF70F0E01A
:1014A00021A18F70A80102C0440F551F8A95E2F751
:1014B000CA01242B21A322A1342E3094232122A35C
:1014C00050E55A95F1F79EE0E92E91E0F92E40E0C3
:1014D00050E0E70159907E01252D22952F7030E0D4
:1014E000E90128A1CD90DC90119730E0D52DDF7077
:1014F00002C035952795DA95E2F720FD08C09801DE
:10150000042E02C0220F331F0A94E2F702C020E02B
:1015100030E0C22AD32A1196DC92CE924F5F5F4F01
:1015200049305105B1F691A1D32DD923D1A392A170
:10153000892B82A3129681E0F50120813181281543
:10154000390509F480E0482A6A167B0609F09ACF2B
:10155000242D48E06FE271E08FE391E00E94C60A1B
:101560000E945D06842DDF91CF911F910F91FF9016
:10157000EF90DF90CF90BF90AF909F908F907F9033
:101580006F905F904F903F9008950895FF920F9352
:101590001F93CF93DF93F82E092F162FD72FC42F29
:1015A000222349F081E0809351010E946A1A9093AE
:1015B000500180934F01809151018823D9F080918F
:1015C0004F01909150010E94821A069798F0EF2DDA
:1015D000F02FA12FBD2F80E090E04C2F50E084171A
:1015E000950734F4219131912D933D930196F7CFD6
:1015F00010925101DF91CF911F910F91FF900895AB
:1016000084E0089550E0440F551F22E1629F400D91
:10161000511D11249A0160E9869F200D311D11246E
:10162000C901839608950F931F93CF93DF930E9470
:10163000020B8C010E94A92AC82FD0E0DC2FCC27F6
:10164000C80101960E94A92A9E01282BC901DF9199
:10165000CF911F910F9108950F931F93CF93DF9315
:10166000122F032F0E94020BEC01602F0E94B72A59
:10167000612FCE010196DF91CF911F910F910C94B4
:10168000B72AAF92BF92CF92DF92EF92FF920F9361
:101690001F93CF93DF93A12CE12CF12CB12C00E010
:1016A00010E0C0E0D0E06701C00ED11EFE01EE0FD9
:1016B000FF1FEC0DFD1DE059FE4F259134914C2F7D
:1016C0006B2D8A2D0E942C0B2196C930D10571F704
:1016D0000E5E1F4FB39488E0B812E3CF80E9E80EA6
:1016E000F11CA39484E0A812D9CFDF91CF911F9170
:1016F0000F91FF90EF90DF90CF90BF90AF90089543
:10170000EF92FF920F931F93CF93DF93EA017A0139
:10171000E60EF71E8C01C8018396CE15DF0569F031
:10172000003422E0120720F40E94A92A888301C015
:10173000188221960F5F1F4FEECFDF91CF911F913F
:101740000F91FF90EF900895EF92FF920F931F93E8
:10175000CF93DF93EA017A01E60EF71E8C01C801F0
:101760008396CE15DF0559F0003422E0120718F4F5
:1017700068810E94B72A21960F5F1F4FF0CFDF913B
:10178000CF911F910F91FF90EF900895462F8430D5
:1017900038F4783028F4693018F4672F0C94130B60
:1017A00080E090E0089580E108958DE991E008954A
:1017B000EF92FF920F931F93CF93DF93EA017A0189
:1017C000E60EF71E8C01C8018D599D4FCE15DF0521
:1017D00069F00D3921E0120720F40E94A92A8883BC
:1017E00001C0188221960F5F1F4FEDCFDF91CF917F
:1017F0001F910F91FF90EF900895EF92FF920F933A
:101800001F93CF93DF93EA017A01E60EF71E8C0156
:10181000C8018D599D4FCE15DF0559F00D3921E0D6
:10182000120718F468810E94B72A21960F5F1F4F94
:10183000EFCFDF91CF911F910F91FF90EF9008951F
:10184000CF93DF93C3E6D2E060E0CE010E94B72AD7
:101850002196C11584E0D807B9F7DF91CF9108959B
:10186000EF92FF920F931F93CF93DF9300D01F92BD
:10187000CDB7DEB7F82E8FE08F15B8F18FEF93E07C
:101880000E94A92A811131C003E612E0FF2069F00D
:10189000011584E0180749F1C8010E94A92A8111A5
:1018A00001C0FA940F5F1F4FF1CF19821A821B8279
:1018B00078018FEFE81AF80AC8010E94A92A8983E3
:1018C0001A82882391F08150833048F40E5F1F4FB5
:1018D000C7010E94A92A8A83882339F07801CE01A2
:1018E00001960E94EC058701E3CF0F900F900F90B7
:1018F000DF91CF911F910F91FF90EF9008950F937B
:101900001F93CF93DF93C62FD42F122FFC01828118
:101910008823C9F0609354010E946A1A909353017E
:101920008093520180E28C0F883008F057C0C77056
:1019300081E001C0880FCA95EAF7DF91CF911F912E
:101940000F910C94231080915401681330C0809142
:101950005201909153010E94821A883C910538F5FA
:1019600000E20D0FCD17B9F080E28C0F883040F403
:10197000C77081E001C0880FCA95EAF70E942A105B
:10198000083028F581E09D2F977001C0880F9A9547
:10199000EAF70E942310812F0E9410100830F0F403
:1019A000D77081E001C0880FDA95EAF70AC080E2BB
:1019B0008C0F883098F4C77081E001C0880FCA95F9
:1019C000EAF7DF91CF911F910F910C942A10812F8C
:1019D000DF91CF911F910F910C941010DF91CF9157
:1019E0001F910F9108959C01CB01213F4CE53407D5
:1019F000F9F078F4283DFCE53F07B9F0293D4CE5C6
:101A0000340711F1273D3C4531F526E241EE61EE08
:101A10001EC0233FFCE53F0799F070F0243F3C4592
:101A2000D1F427E245EE66EE12C027E245EE0EC085
:101A300026E241EE60EE0BC027E245EE64EE07C001
:101A400026E241EE62EE03C028E241E065EE0E942C
:101A50007F0C80E00895FC018281882319F01092A8
:101A60005401089581E0089590935A01809359019B
:101A70000895E0915901F0915A01309721F00190B9
:101A8000F081E02D099480E00895E0915901F091F2
:101A90005A01309799F020910C01222359F020919E
:101AA000CD0327FF07C0DC012C9111962C931197D1
:101AB00025E02C930280F381E02D09940895209174
:101AC0005701309158012817390771F09093580148
:101AD00080935701E0915901F0915A01309721F01C
:101AE0000680F781E02D09940895209155013091E9
:101AF00056012817390771F09093560180935501CC
:101B0000E0915901F0915A01309721F00084F1855C
:101B1000E02D0994089585B7806885BF85B78068F2
:101B200085BF089508950C94920D0C94930D0C9418
:101B3000920D0C94920D0E948B0D0E94970D0C94A7
:101B4000950D81E008950E94611A0E94D9090E94B2
:101B5000F61A0C94990D5F926F927F928F929F92DA
:101B6000AF92BF92CF92DF92EF92FF920F931F93AB
:101B7000CF93DF93CDB7DEB72A970FB6F894DEBFC9
:101B80000FBECDBF0E94260A0E94A10D811111C077
:101B90008FEF89838A831B820E946A1A8160782F63
:101BA0009D838C8349815A816B818D810E94660E51
:101BB00056C09CE5692E91E0792E00E010E0882463
:101BC0008394912C502E802F0E94CF096C01F30139
:101BD000A190B1903F01A826B926A114B10431F417
:101BE0000F5F1F4F0830110569F7D2CF8091FF01B9
:101BF00081FD0E94D80980E090E07401082E02C0A7
:101C0000EE0CFF1C0A94E2F795012E213F21232BB5
:101C100009F18E835F82CE20DF2081E0CD2809F498
:101C200080E088870E946A1A8160782F9A87898766
:101C30004E815F8168858A850E94660E000F111FA4
:101C4000F801E45AFE4F80819181E826F926F1825D
:101C5000E08205C001968930910579F6C1CF0E94D6
:101C6000390D90915B018917D9F00E94390D80934D
:101C70005B012A960FB6F894DEBF0FBECDBFDF9191
:101C8000CF911F910F91FF90EF90DF90CF90BF9079
:101C9000AF909F908F907F906F905F900C946106B3
:101CA0002A960FB6F894DEBF0FBECDBFDF91CF915D
:101CB0001F910F91FF90EF90DF90CF90BF90AF906A
:101CC0009F908F907F906F905F900895CF93DF9358
:101CD000CDB7DEB72B970FB6F894DEBF0FBECDBFE2
:101CE0004F83588769877A878B87DE01119686E054
:101CF000FD0111928A95E9F785E0FE013796019082
:101D00000D928A95E1F749815A816B817C818D81A1
:101D10009E810E9459152B960FB6F894DEBF0FBE18
:101D2000CDBFDF91CF910895FC01808191810E9408
:101D30002D180895882309F413C1682F8238C1F43F
:101D40000E94390D81FD0CC169E3809100019091E1
:101D500001010E94051A0E94BA182FEF80E792E055
:101D6000215080409040E1F700C0000069E319C0B5
:101D70008338F9F40E94390D80FDF2C063E580914B
:101D80000001909101010E94051A0E94BA182FEFDC
:101D900080E792E0215080409040E1F700C00000D1
:101DA00063E580910001909101010E94101A0C944A
:101DB000BA188438C1F40E94390D82FDD1C067E49D
:101DC00080910001909101010E94051A0E94BA18A9
:101DD0002FEF80E792E0215080409040E1F700C073
:101DE000000067E4DECF8CEF860F813A38F48091F3
:101DF0000001909101010E94051AD9CF80E2860F5F
:101E0000883048F4677081E001C0880F6A95EAF76E
:101E10000E946F18CCCF8BE5860F833070F4653A43
:101E200029F0663A31F083E890E005C081E890E05F
:101E300002C082E890E00C945F0D88E5860F873140
:101E400008F08EC0683A09F445C0693A09F445C003
:101E50006A3A09F445C06B3A09F445C06C3A09F492
:101E600045C06B3B09F445C06C3B09F445C06D3A75
:101E700009F445C0603B09F445C06E3A09F445C019
:101E80006F3A09F445C0613B09F445C0623B09F46F
:101E900045C0633B09F445C0643B09F445C0653B5C
:101EA00009F445C0663B09F445C0673B09F445C0E9
:101EB000683B09F445C0693B09F445C06D3B09F432
:101EC00045C06E3B09F445C06A3B09F445C080E05B
:101ED00090E044C082EE90E041C089EE90E03EC0C8
:101EE0008AEE90E03BC085EB90E038C086EB90E056
:101EF00035C083EB90E032C084EB90E02FC087EBDD
:101F000090E02CC08CEC90E029C08DEC90E026C0D5
:101F100083E891E023C08AE891E020C082E991E063
:101F20001DC084E991E01AC081E292E017C083E20B
:101F300092E014C084E292E011C085E292E00EC00B
:101F400086E292E00BC087E292E008C08FE690E064
:101F500005C080E790E002C08AE292E00C94750D23
:101F60000895882309F45BC0682F823879F40E94B1
:101F7000390D81FF54C069E3809100019091010106
:101F80000E94051A0E94BA1869E310C08338B1F4A0
:101F90000E94390D80FF43C063E58091000190915C
:101FA00001010E94051A0E94BA1863E580910001A0
:101FB000909101010E94101A0C94BA18843879F497
:101FC0000E94390D82FF2BC067E48091000190913F
:101FD00001010E94051A0E94BA1867E4E7CF8CEF4E
:101FE000860F813A18F380E2860F883048F46770D4
:101FF00081E001C0880F6A95EAF70E947518DCCF6E
:102000008BE5860F833020F480E090E00C945F0D28
:10201000685A673120F480E090E00C94750D0895C3
:10202000CF93C82F0E949A0EC93349F42FEF81EE47
:1020300094E0215080409040E1F700C000008C2FD8
:10204000CF910C94B10F882321F00E946F180C944B
:10205000BA180895882321F00E9475180C94BA18B4
:1020600008958F929F92AF92BF92DF92EF92FF926C
:102070000F931F93CF93DF937C01062FC72FFC0193
:10208000158112951F70D281D1110E948C180E9467
:102090006518882379F0DD2369F080E2800F8830AD
:1020A00048F082E00E9404190E94651891E0D82E41
:1020B000D92601C0D12CBC2EB2948FE0B8228B2D32
:1020C00090E0FC01E558FF4F0C9472278C2F807F25
:1020D000CF70882311F0C295C07FDD2399F0CC2307
:1020E00009F477C180E2800F883010F0011104C03C
:1020F0008C2F0E946F1803C08C2F0E947F180E94A3
:10210000BA1867C1802F0E94B10FCC2309F486C191
:1021100080E2800F883010F0011104C08C2F0E94E3
:10212000751803C08C2F0E9485180E94BA1876C1BA
:102130008C2F807FCF70803211F0C295C07F00233A
:1021400019F00130C9F022C0DD2371F0112341F0F4
:10215000113031F40E949F188C2B0E94A7185EC189
:102160000E949F188C2BEEC0112319F0113009F436
:1021700055C10E94B01818C0DD2321F0163008F0B8
:102180004DC10EC0153008F049C10EC0DD2351F01D
:10219000112331F0F701858180FF1BC18F7085838A
:1021A0008C2FD0C0111126C18C2FD2C08C2F8695B8
:1021B0008695837019F0813061F030C1DD2321F004
:1021C000802F9C2F937002C080E090E00E945F0DF2
:1021D00032C1DD2321F0802F9C2F937002C080E05C
:1021E00090E00E94750D27C18C2F837009F047C0C5
:1021F000D1111DC1202F229526952770220F220F65
:10220000602F6F70862F90E0A0E0B0E04C015D0180
:10221000022E04C0880C991CAA1CBB1C0A94D2F77D
:1022200004FF10C08FE090E0A0E0B0E004C0880F91
:10223000991FAA1FBB1F2A95D2F780959095A0954C
:10224000B09503C080E090E0DC01C695C695C370F0
:10225000BC01CD01682979298A299B29C23049F01E
:1022600058F4C13019F00E94AA16E1C00E949816D5
:10227000DEC00E94BC16DBC00E949616D8C0DD23CB
:1022800019F08C2F817001C08695882309F4CFC086
:10229000202F229526952770220F220F602F6F7016
:1022A000862F90E0A0E0B0E04C015D01022E04C05A
:1022B000880C991CAA1CBB1C0A94D2F704FF10C0FE
:1022C0008FE090E0A0E0B0E004C0880F991FAA1F43
:1022D000BB1F2A95D2F780959095A095B09503C025
:1022E00080E090E0DC01C695C695C370BC01CD01CD
:1022F000682979298A299B29C23049F058F4C130CC
:1023000019F00E946F1793C00E945D1790C00E9441
:1023100081178DC00E94D0168AC0802F90E0FC01EA
:10232000E05EF109E531F10508F04FC0E557FF4FD8
:102330000C9472270F708C2F8F71DD2331F00E9467
:10234000F616802F0E94231069C00E941717802F55
:102350000E942A1063C0DD2341F0153008F05EC0F2
:102360008C2F8F710E943C1759C0163008F056C050
:10237000F7CFDD2339F08C2F8F710E94F6164EC0F7
:10238000DD23C9F38C2F8F710E94171747C0DD23FF
:1023900029F08C2F8F710E94E11640C00E94DC163C
:1023A0003DC0DD2349F0CF718C2F0E94F61663E00B
:1023B0008C2F0E94EF1832C081E00E940419123065
:1023C00068F182E00E94041929C0DD2331F0112355
:1023D00091F2802F0E949A0E21C0112399F20933A5
:1023E00049F4FFEF21EE84E0F15020408040E1F716
:1023F00000C00000802F0E94B10F10C04C2F4F7002
:10240000602FC7010E9468070E94071614C04C2F56
:102410004F70602FC7010E946B070DC098E0B9167E
:1024200031F0B91640F086EF8B0D823020F40E9417
:10243000390D0E946106DD20E1F00E94611880FDE7
:1024400018C0F70112820E945B180E94F616C7019D
:102450000E9445120E945B18DF91CF911F910F914E
:10246000FF90EF90DF90BF90AF909F908F900C9473
:102470001717DF91CF911F910F91FF90EF90DF9091
:10248000BF90AF909F908F9008950F931F93CF931D
:10249000DF93EC01988189812B813C81232B31F0E2
:1024A0008F3F31F481E09F3F19F403C081E001C008
:1024B00080E080FD13C0CE010E947306882371F076
:1024C000688179818A810E9438188C010E94931753
:1024D0000E948416B801CE010E943110DF91CF9185
:1024E0001F910F9108950E948C180E949C180E94C1
:1024F000BA1880E090E00E945F0D80E090E00C94BC
:10250000750D80910001909101010E941B1A0C949D
:1025100073120E947C180C948112E92FE295EF70DF
:102520004E2F50E0FA013297EE30F105B0F4E0564C
:10253000FF4F0C947227803F91F018F4803E68F4AE
:102540000EC0843F51F40BC0803E48F0813F29F417
:1025500006C093FB882780F9089580E0089581E004
:1025600008950E942D180E948D120895CF93DF9335
:1025700000D000D01F92CDB7DEB70F900F900F9014
:102580000F900F90DF91CF910895CF93DF9300D0FC
:1025900000D000D0CDB7DEB726960FB6F894DEBFD8
:1025A0000FBECDBFDF91CF9108951F93CF93DF93DF
:1025B000C0916D0116E080916E01C81799F0D0E0CE
:1025C0001C9FF0011D9FF00D1124E159FE4F408129
:1025D000518162817381848195810E94C512219607
:1025E000C770E9CFDF91CF911F91089540919F016E
:1025F0005091A0016091A1017091A2018091A3016D
:102600009091A4010C94C512CF938091A40182955E
:102610008F7009F05FC08091A101882309F45AC02E
:1026200080916D01B0916E0170919F01A091A00108
:102630004091A2015091A30191E07F3F09F090E009
:10264000692FC6E08B1709F445C04115510521F0EB
:10265000AF3F21F020E003C021E001C0262F90E031
:1026600020FD35C0C89FF001C99FF00D1124E1592C
:10267000FE4F21812A132BC02081271328C02281DD
:10268000211125C0238134812417350710F42150EE
:102690003109241B350B283C3105C8F42091A401D5
:1026A0002F7020612093A40126E0289FF001299F2C
:1026B000F00D1124EC58FE4F80818F708061808373
:1026C0008FE991E00E944512CF910C94D5120196AA
:1026D0008770B8CFCF910895AF92BF92CF92DF921B
:1026E000EF92FF920F931F93CF93DF93CDB7DEB797
:1026F00061970FB6F894DEBF0FBECDBF8C0185E0A9
:10270000F801DE011D9601900D928A95E1F7D8013E
:102710004C9111965C9111971296EC9030919F011B
:102720006091A0018091A2019091A301009731F0E6
:102730006F3F31F421E03F3F19F403C021E001C0B5
:1027400020E0B22FB170BB2E20FD60C1F801C38024
:10275000D480A090A101AA2009F4EEC02091A40188
:10276000C816D90628F0D601A81BB90BCD0104C0A4
:10277000809590958C0D9D1DFF24F394883C9105C8
:1027800080F0F12C207F09F09CC07C2DD98AC88A6A
:102790006E2D89890E94B6128FE991E00E94451240
:1027A0002DC1822F807F09F054C0561314C04313EB
:1027B00012C0FE2CE1100FC02F7020612093A401E5
:1027C0000E94F6128FE991E00E9445128091A401C7
:1027D000F80185835CC1CD2831F05F3F31F481E0A1
:1027E0004F3F19F403C081E001C080E080FD03C0C9
:1027F00081E08E2502C080E090E0F82FF170FF2E7E
:1028000080FF1CC080916D0120916E0136E082171F
:1028100009F41AC190E0389FF001399FF00D11249E
:10282000E159FE4F6181561306C06081461303C013
:102830006281E61203C001968770E9CFFE2CEE207C
:1028400009F425C18091A40181608093A401F12C39
:102850001EC1561309C0431307C0E11005C0809183
:10286000A401F8018583A4C04D875E878D859E8570
:102870000E94B112882379F1EE2069F12091A40120
:10288000822F82958F7090E0029774F080919F0163
:102890009091A00198878F831986DB86CA862C8742
:1028A000CE0107960E94451286E0F801AFE9B1E03B
:1028B00001900D928A95E1F70E9404130E94F6128E
:1028C0000DC0561771F04D875E878D859E850E94DD
:1028D000B11281111AC0C8010E944512FF24F3945D
:1028E000D6C04313F0CFE110EECF8091A401F801E0
:1028F0008583C8010E94451286E0EFE9F1E0DF011F
:102900001D928A95E9F7FA2CC2C0EE2021F320919E
:10291000A401822F82958F7090E002972CF2809113
:102920009F019091A0019A8389831B82DD82CC82D2
:102930002E83CE010196B6CFC816D90628F0F6012F
:10294000E81BF90BCF0104C0809590958C0D9D1D5F
:10295000883C910548F0F12C7C2DD98AC88A6E2DCF
:1029600089890E94B6124AC0FE2CEE2009F4B3CF2A
:10297000561333C0431331C02091A40120FD24C05D
:10298000822F82958F70482F50E041155105E1F05C
:10299000D80115962C9315974F30510549F08F5F4C
:1029A000982F9295907F822F8F70892B15968C93FC
:1029B000C8010E94451286E0F801AFE9B1E001903C
:1029C0000D928A95E1F73DC086E0F801AFE9B1E0EC
:1029D00001900D928A95E1F75AC04D875E878D85EB
:1029E0009E850E94B11281115FCF8091A401816008
:1029F0008093A401C8010E94451249C0EFE9F1E0AB
:102A000086E0DF011D928A95E9F71BC0EE2009F4EC
:102A100062CF4D875E878D859E850E94B112F82E0C
:102A2000882309F458CF86E0F801AFE9B1E00190BE
:102A30000D928A95E1F78FE991E00E94940E0E9431
:102A400004130E94F61223C04D875E878D859E85F4
:102A50000E942D18292F22952F70223028F49F7064
:102A600039F0811105C00BC0243028F49F7049F45F
:102A7000805E883020F0C8010E944512BF2CFB2CDC
:102A800006C0D80115969C91907F91F7F8CF8F2DB5
:102A900061960FB6F894DEBF0FBECDBFDF91CF9128
:102AA0001F910F91FF90EF90DF90CF90BF90AF906C
:102AB00008951F93CF93DF93CDB7DEB72C970FB652
:102AC000F894DEBF0FBECDBF4F83588769877A87E2
:102AD0008B879C87CE0107960E946C138823D1F0C8
:102AE0009F8188852A853B85232B31F08F3F31F4E8
:102AF00081E09F3F19F403C081E001C080E080FDC8
:102B000047C04F81588569857A858B859C850E9451
:102B1000C5123EC086E0FE013796DE011196019097
:102B20000D928A95E1F7FF81E8856A857B856115BD
:102B3000710531F0EF3F31F481E0FF3F19F403C03C
:102B400081E001C080E080FD23C020916E0130E073
:102B5000C90101968770992740916D0150E0841753
:102B60009507F1F1F983EA837D836C8396E0929F68
:102B7000D001939FB00D1124A159BE4FFE01319693
:102B800001900D929A95E1F780936E010E94D51203
:102B900016E080916D0190916E01891771F1189F77
:102BA000C001112481599E4F0E946C13882329F182
:102BB000E0916D011E9FF0011124E159FE4F40810B
:102BC000518162817381848195810E94C5128091B7
:102BD0006D0190E001968770992780936D01D9CFA0
:102BE0000E94891210926E0110926D01EFE9F1E0DE
:102BF00086E0DF011D928A95E9F72C960FB6F894CE
:102C0000DEBF0FBECDBFDF91CF911F910895EF9230
:102C1000FF920F931F93CF93DF938C01892B09F4BD
:102C20006CC0F12CEE24E394E8012196F801849124
:102C3000843740F4843008F051C0813081F0823014
:102C400019F15BC0853709F444C0A8F19CE7980FDF
:102C5000903708F052C08F770E94B10F41C00E5FCD
:102C60001F4FFE01849190E2980F983050F48770C6
:102C7000FE2D01C0FF0F8A95EAF78F2F0E948F1853
:102C800014C00E949A0E2DC00E5F1F4FFE0184914A
:102C900090E2980F983060F48770FE2D01C0FF0F0E
:102CA0008A95EAF78F2F0E9495180E94BA1819C0CA
:102CB0000E94B10F16C00E5F1F4FFE01C491CC23BE
:102CC00081F08FEC97E00197F1F700C00000C15050
:102CD000F6CF0E5F1F4FFE01F49003C00E949A0EC4
:102CE0008E018F2D882309F49FCFEFECF7E0319709
:102CF000F1F700C000008150F5CFDF91CF911F9117
:102D00000F91FF90EF900895089508950C94851603
:102D10000C9486160E9488166093D6017093D70192
:102D20008093D8019093D9010C9473120C948A1655
:102D30000F931F930091D6011091D7012091D801D4
:102D40003091D901602B712B822B932B1F910F9106
:102D50000C948A160F931F930091D6011091D701FE
:102D60002091D8013091D9016023712382239323CC
:102D70001F910F910C948A160F931F930091D60107
:102D80001091D7012091D8013091D9016027712786
:102D9000822793271F910F910C948A160C94851605
:102DA0000E94CE166093D2017093D3018093D40118
:102DB0009093D5010C94731260E070E0CB010C94F9
:102DC000D0160F931F9341E050E060E070E08A015D
:102DD0009B0104C0000F111F221F331F8A95D2F7D9
:102DE000C901B8011F910F910C94D0160F931F9336
:102DF00041E050E060E070E004C0440F551F661FE2
:102E0000771F8A95D2F78091D2019091D301A0913A
:102E1000D401B091D5018A019B01082B192B2A2BD3
:102E20003B2BC901B8011F910F910C94D0160F9341
:102E30001F9341E050E060E070E004C0440F551F74
:102E4000661F771F8A95D2F74095509560957095CB
:102E50008091D2019091D301A091D401B091D5017C
:102E60008A019B01082319232A233B23C901B801A6
:102E70001F910F910C94D0160F931F9341E050E0D7
:102E800060E070E004C0440F551F661F771F8A95ED
:102E9000D2F78091D2019091D301A091D401B09149
:102EA000D5018A019B01082719272A273B27C90139
:102EB000B8011F910F910C94D0160F931F9300919E
:102EC000D2011091D3012091D4013091D501602B12
:102ED000712B822B932B1F910F910C94D0160F9373
:102EE0001F930091D2011091D3012091D401309110
:102EF000D50160237123822393231F910F910C949A
:102F0000D0160F931F930091D2011091D3012091FD
:102F1000D4013091D50160277127822793271F9113
:102F20000F910C94D016089529E0929F800D1124E2
:102F3000E82FE695E695E695877051E001C0550FBC
:102F40008A95EAF785E0E89FF0011124EB55FE4FE2
:102F500020E030E070E04081CB01022E02C0969567
:102F600087950A94E2F781708195842785238427C9
:102F700081932F5F3F4F2530310569F7089529E090
:102F8000929F800D1124682F669566956695982FFF
:102F9000977085E0689FB001112440E050E080E028
:102FA000FB01E40FF51FEB55FE4F208130E0092EA9
:102FB00002C0369527950A94E2F721703327042E34
:102FC00001C0220F0A94EAF7822B4F5F5F4F453012
:102FD000510531F70895BF92CF92DF92EF92FF92A1
:102FE0000F931F93CF93DF938C01C090D201D090A9
:102FF000D301E090D401F090D5018091D601909159
:10300000D701A091D801B091D901C82AD92AEA2ABA
:10301000FB2ACFE1D0E0D701C6010C2E04C0B69543
:10302000A795979587950A94D2F780FD04C02197BC
:1030300090F7B12C07C0BC2EB8018C2F0E947407EA
:103040000197A9F38B2DDF91CF911F910F91FF90E5
:10305000EF90DF90CF90BF900895CF93DF93EC0176
:103060000E94EB17BE010E947407DF91CF91089573
:103070001F93CF93DF93EB0190916C01992321F083
:10308000CB010E942D1813C0882349F0CB010E9468
:10309000EB17182F682FCE010E94941704C0CB01A4
:1030A0000E94BF17182FBE01812F0E947407DF9165
:1030B000CF911F9108958091DA0185958595859529
:1030C00008958091DA01877008959091DA019770E0
:1030D00081E009F480E008958091FE0108959091C7
:1030E000FE01892B8093FE01089580959091FE0149
:1030F00089238093FE0108951092FE010895909116
:10310000FD01892B8093FD01089580959091FD012B
:1031100089238093FD0108951092FD0108959091F7
:10312000FC01892B8093FC01089580959091FC010E
:1031300089238093FC0108951092FC0108958091E9
:10314000DB01089508950C94A2180C94A318909193
:10315000DB01981721F08093DB010C94A5180895EA
:103160008091DB01882329F01092DB0180E00C9430
:10317000A5180895E0910001F09101018091FE01F0
:103180008083E0910001F091010190818091FD0127
:10319000892B8083E0910001F09101019081809161
:1031A000FC01892B80838091DB01882381F0E091F1
:1031B0000001F09101019081892B808380910001B1
:1031C000909101010E949F1981110E94B018809175
:1031D0000001909101010C94450D0C94A21898E007
:1031E000899F90011124262B2093DA010E94F61664
:1031F0008091DA018595859585950C94ED1810924E
:10320000DA0180E00C94ED182091DA018095822398
:103210008093DA01982F977079F430E0482F082EC8
:10322000000C550B2417350739F085958595859544
:103230000E9417170C94FF1808956FEF7FEF80E03E
:1032400090E00C94D52A80E090E00E94B12A21E021
:103250008D3E9E4F09F020E0822F089582E090E09D
:103260000C94A92A83E090E00C94A92A84E090E0D1
:103270000C94A92A682F84E090E00C94B72AAB0143
:10328000BC018FE090E00C94C92AAB01BC0183E142
:1032900090E00C94C92A60E070E0CB010C944519D1
:1032A00060E070E0CB010E943F190C944B196DEE69
:1032B0007EEF80E090E00E94D52A60E082E090E01E
:1032C0000E94B72A60E083E090E00E94B72A109243
:1032D000D6011092D7011092D8011092D90160E066
:1032E00084E090E00E94B72A60E085E090E00E94D0
:1032F000B72A60E086E090E00E94B72A6FEF87E08F
:1033000090E00E94B72A40E050E0BA0188E090E0E7
:103310000E94C92A60E08DE090E00E94B72A40E058
:1033200050E0BA0188E190E00E94C92A60E087E19C
:1033300090E00E94B72A0C9450190C945719FC0184
:10334000329680910C01882331F08091CD0387FF64
:1033500002C09EE101C096E080E0915028F02191EA
:103360002223D9F38F5FF9CF08959C01FC01329697
:103370009FEF80E04191461789F09F3F19F441117A
:1033800001C0982F8F5F8630A9F79F3F39F0F90170
:10339000E90FF11D97FDFA956283089508959C0148
:1033A0002A5F3F4FFC014281461301C01282019601
:1033B00082179307B9F70895262F26952695269507
:1033C0002E3168F4FC01E20FF11D677021E030E05E
:1033D00001C0220F6A95EAF78281282B2283089583
:1033E000262F2695269526952E3170F4FC01E20FA6
:1033F000F11D677021E030E001C0220F6A95EAF705
:103400002095828128232283089520910C01222374
:1034100029F02091CD0327FD0C94DC190C94B519EB
:1034200020910C01222329F02091CD0327FD0C943B
:10343000F0190C94CF1920910C01FC013296222333
:1034400031F08091CD0387FF02C08EE101C086E09C
:10345000DF011D928A95E9F7089508950C942D1ABD
:103460000E9489120E94390D0E9461060C942E1A46
:103470001F920F920FB60F9211248F939F93AF93C9
:10348000BF9380910002811113C08091C903909174
:10349000CA03A091CB03B091CC034196A11DB11DED
:1034A0008093C9039093CA03A093CB03B093CC033A
:1034B000BF91AF919F918F910F900FBE0F901F9072
:1034C000189582E084BD93E095BD9DE797BD8093FC
:1034D0006E0008952FB7F8948091C9039091CA03A4
:1034E000A091CB03B091CC032FBF08952FB7F894D0
:1034F0006091C9037091CA038091CB039091CC0372
:103500002FBF0895CF92DF92EF92FF920F931F93F8
:103510002FB7F8944091C9035091CA036091CB032F
:103520007091CC032FBF6A017B01EE24FF248C0134
:1035300020E030E0C016D106E206F30610F4415058
:1035400051099A01281B390BC9011F910F91FF9056
:10355000EF90DF90CF90089578941F920F920FB65E
:103560000F9211248F939F93AF93BF938091C903C0
:103570009091CA03A091CB03B091CC030196A11DF9
:10358000B11D8093C9039093CA03A093CB03B0935A
:10359000CC03BF91AF919F918F910F900FBE0F9071
:1035A0001F90189581E08093E00080E28093D8001E
:1035B0001092C9008FE097E20197F1F700C0000078
:1035C00087E090EBDC018093DC039093DD03A09314
:1035D000DE03B093DF039CE088E10FB6F894A89572
:1035E000809360000FBE90936000FFCF0E9423196C
:1035F000811102C00E949D190E942E198093FF0123
:103600000E94361990E09093CE038093CD030E94E0
:103610003219682F70E080E090E00C94961680914B
:10362000210208950895EF92FF921F93CF93DF93A5
:1036300000D01F92CDB7DEB77C010E94C31D182FAA
:103640008DEF810F823040F460E070E0C7010E948E
:103650002927143019F025C0123019F584E0898328
:10366000FB82EA828093E9008FEF9091E80081501D
:1036700095FD06C09AE69A95F1F700C08111F5CF45
:103680008091E80085FF0DC040E050E063E070E00D
:10369000CE0101960E94CA1D8091E8008E7780932A
:1036A000E8000F900F900F90DF91CF911F91FF9046
:1036B000EF900895CF93DF9300D01F92CDB7DEB780
:1036C0002091D303243029F533E0398380589109C0
:1036D0009B838A832093E9008FEF9091E8008150CB
:1036E00095FD06C09AE69A95F1F700C08111F5CFD5
:1036F0008091E80085FF0DC040E050E063E070E09D
:10370000CE0101960E94CA1D8091E8008E778093B9
:10371000E8000F900F900F90DF91CF9108951F93C5
:10372000CF93DF93EC010E94C31D182F8DEF810F03
:10373000823050F446E0BE016E5F7F4F88810E9468
:10374000C126143019F03DC01230D9F580910C011A
:10375000882339F08091CD0387FF03C060E284E0C5
:1037600002C068E081E08093E9008FEF9091E8006B
:10377000815095FD06C09AE69A95F1F700C0811137
:10378000F5CF8091E80085FF1CC080910C0181116C
:1037900005C040E050E068E070E003C070E040E049
:1037A00050E0CE010E94CA1D8091E8008E77809380
:1037B000E80080E2FE01A1E0B2E001900D928A955E
:1037C000E1F7DF91CF911F910895CF93603219F502
:1037D0002091D3032430F9F4C091E900CF703091E7
:1037E000EC00232F217030FD20E8C22B22E0209333
:1037F000E9002091E80020FF0BC040E050E060E2CB
:1038000070E00E94CA1D8091E8008E778093E800E6
:10381000CF70C093E900CF9108958091D2038111B8
:1038200009C00E94A61F0E9403208091E2008460CC
:103830008093E20008951092D203089508950895A8
:103840000C94301A42E061EC81E00E941F1F42E2BA
:1038500061EC84E00E941F1F42E261EC82E00E9462
:103860001F1F42E260EC83E00C941F1F8091D50380
:10387000833009F462C030F4813071F0823009F491
:103880009BC008958A3009F487C08B3009F46DC05D
:10389000893009F0A9C020C08091D403813A09F091
:1038A000A3C08091E800877F8093E8008091D803CF
:1038B0009091D903892B21F460E281E092E003C06A
:1038C00060E080E090E070E00E94601E8091E8007F
:1038D0008B778093E80008958091D403813209F0BA
:1038E00083C08091D8039091D903009719F0029773
:1038F00009F07AC08091E800877F8093E80080918A
:10390000E80082FD05C08091D3038111F8CF6CC01F
:103910002091F3008091F20090E0922B029729F41D
:103920008091F1008B7F813021F48091F1008093B0
:1039300021028091E8008B7753C08091D403813AB3
:1039400009F052C08091D8039091D903892B09F0D6
:103950004BC08091E800877F8093E8008091E80069
:1039600080FFFCCF80910C0136C08091D40381325E
:10397000D9F58091D8039091D903892BA9F580912D
:10398000E800877F8093E8000E94541F8091D6034F
:1039900080930C010C9489128091D403813221F51B
:1039A0008091E800877F8093E8000E94541F8091F7
:1039B000D7038093220208958091D403813AA1F421
:1039C0008091E800877F8093E8008091E80080FF85
:1039D000FCCF809122028093F1008091E8008E77E5
:1039E0008093E8000C94541F08951F93CF93DF93A6
:1039F000CDB7DEB7A0970FB6F894DEBF0FBECDBF30
:103A000084B7877F84BF0FB6F894A8958091600033
:103A1000886180936000109260000FBE80E8809300
:103A20006100109261000E949B0D0E94A61F0E94DF
:103A300003208091E20084608093E20078940E94E9
:103A400095220E94A30D82E091E00E94340D13E0C4
:103A50000E94AB0D0E942C268091D3038430C1F7C5
:103A60001093E9008091E80082FFF2CF8091E80096
:103A700085FF0AC040E050E060E270E0CE010196B0
:103A80000E94151E91E001C090E08091E8008B77C4
:103A90008093E8009923E1F260E2CE0101960E9452
:103AA0005504D6CF0C94541D292F332723303105CC
:103AB000C9F060F42130310581F02230310509F080
:103AC00047C08BE590E022E635E046C02132310563
:103AD00011F12232310561F13BC082E190E02DEB22
:103AE00035E03AC099278130910561F040F082308D
:103AF000910559F0039761F5E0E3F5E008C0EEE5C4
:103B0000F5E005C0ECE4F5E002C0E6E3F5E0849101
:103B100090E09F0121C063307105D0F4660F771FDC
:103B2000FB01E85DFE4F2081318189E090E014C007
:103B30006330710568F4FB01EE0FFF1FEE5DFE4F71
:103B400020813181FB01E15EFE4F808190E004C065
:103B500080E090E020E030E0FA0131832083089596
:103B60000895CF93C82F0E94B01DC0930D01CF912F
:103B700008958091D303843021F00E94BE2583E014
:103B8000089582E0089580910D01811102C00C9486
:103B9000B91D0895CF92DF92EF92FF920F931F937A
:103BA000CF93DF93EC018B017A010E94731F811187
:103BB00033C0E114F10439F0F70180819181081BD1
:103BC000190BC80FD91FC12CD12C0115110519F1E2
:103BD0008091E80085FD16C08091E8008E77809383
:103BE000E800E114F10449F0F70180819181C80EE9
:103BF000D91ED182C08285E00FC00E94731F882326
:103C000021F30AC089918093F10001501109FFEF5F
:103C1000CF1ADF0ADACF80E0DF91CF911F910F91A9
:103C2000FF90EF90DF90CF900895CF92DF92EF92C8
:103C3000FF920F931F93CF93DF93EC018B017A01D7
:103C40000E94731F811133C0E114F10439F0F701B0
:103C500080819181081B190BC80FD91FC12CD12C51
:103C60000115110519F18091E80085FD16C08091BC
:103C7000E8008B778093E800E114F10449F0F70144
:103C800080819181C80ED91ED182C08285E00FC08B
:103C90000E94731F882321F30AC08091F100899349
:103CA00001501109FFEFCF1ADF0ADACF80E0DF9170
:103CB000CF911F910F91FF90EF90DF90CF900895DB
:103CC0002091DA033091DB032617370748F061159E
:103CD000710539F42091E8002E772093E80001C0A7
:103CE000B901FC0120E06115710579F18091D303E0
:103CF0008823F1F18530F1F18091E80083FD3CC02B
:103D00008091E80082FD2EC08091E80080FFEBCF1B
:103D10002091F3008091F20090E0922B61157105E3
:103D200051F08830910538F421912093F1006150D1
:103D300071090196F3CF21E0089709F020E0809106
:103D4000E8008E778093E800CECF2111CFCF0AC054
:103D50008091D303882361F0853061F08091E80081
:103D600083FD0AC08091E80082FFF2CF80E00895D1
:103D700082E0089583E0089581E008952091DA03B8
:103D80003091DB032617370748F06115710539F4C8
:103D90002091E8002E772093E80001C0B901FC01D2
:103DA00020E06115710591F18091D303882309F416
:103DB00040C0853009F43FC08091E80083FD3DC0DC
:103DC0008091E80082FD2FC08091E80080FFE9CF5C
:103DD0002091F3008091F20090E0922B6115710523
:103DE00059F08830910540F424912093F1003196E8
:103DF000615071090196F2CF21E0089709F020E0A7
:103E00008091E8008E778093E800CBCF2111CCCF52
:103E10000AC08091D303882361F0853061F08091DE
:103E2000E80083FD0AC08091E80082FFF2CF80E0C5
:103E3000089582E0089583E0089581E00895982F21
:103E4000973068F59093E900981739F07091EC007D
:103E50002091ED005091F00003C0242F762F50E008
:103E600021FD02C09F5FECCF3091EB003E7F30938D
:103E7000EB003091ED003D7F3093ED003091EB0091
:103E800031603093EB007093EC002093ED00509381
:103E9000F0002091EE0027FDE5CF80E008958F70BF
:103EA0008093E90081E008958091D40387FF11C0D9
:103EB0008091E80082FD05C08091D3038111F8CF85
:103EC00011C08091E8008B770BC08091D3038823C9
:103ED00049F08091E80080FFF8CF8091E8008E776C
:103EE0008093E80008952091E4003091E50095E684
:103EF0004091EC00842F817040FF23C08091E80046
:103F000080FD1DC08091D303882399F0853099F0FE
:103F10008091EB0085FD11C04091E4005091E500D7
:103F20002417350729F3915011F09A01E1CF84E06D
:103F3000089582E0089583E0089581E0089580E087
:103F400008954091E80042FFDDCF08950E941420BB
:103F50000E941C20E0EEF0E0808181608083E8ED2B
:103F6000F0E080818F77808319BCA7EDB0E08C9161
:103F70008E7F8C9380818F7E80831092D2030895F0
:103F80000F931F93CF93DF930E9414200E941C2055
:103F9000C8EDD0E088818F778883888180688883A6
:103FA00088818F7D888319BC1092D3031092CF0330
:103FB0001092D1031092D00300EE10E0F80180813E
:103FC0008B7F808388818160888342E060E080E02D
:103FD0000E941F1FE1EEF0E080818E7F8083E2EE81
:103FE000F0E0808181608083808188608083F80137
:103FF00080818E7F8083888180618883DF91CF91EB
:104000001F910F910895E8EDF0E080818F7E80830D
:10401000E7EDF0E080818160808384E082BF81E011
:104020008093D2030C94C01FE8EDF0E080818E7F76
:1040300080831092E20008951092DA001092E1005D
:1040400008951F920F920FB60F9211242F933F9352
:104050004F935F936F937F938F939F93AF93BF9390
:10406000EF93FF938091E10082FF0BC08091E2000B
:1040700082FF07C08091E1008B7F8093E1000E9466
:1040800094228091DA0080FF1DC08091D80080FFCB
:1040900019C08091DA008E7F8093DA008091D90078
:1040A00019BC80FF0BC082E089BD09B400FEFDCFC2
:1040B00081E08093D3030E940D1C04C01092D303AF
:1040C0000E941B1C8091E10080FF19C08091E200DA
:1040D00080FF15C08091E2008E7F8093E200809186
:1040E000E20080618093E2008091D800806280933A
:1040F000D80019BC85E08093D3030E941F1C8091D7
:10410000E10084FF2FC08091E20084FF2BC019BC26
:1041100082E089BD09B400FEFDCF8091D8008F7D7B
:104120008093D8008091E1008F7E8093E1008091A0
:10413000E2008F7E8093E2008091E20081608093B4
:10414000E2008091CF03882311F084E007C08091C2
:10415000E30087FD02C081E001C083E08093D303C8
:104160000E94201C8091E10083FF29C08091E20021
:1041700083FF25C08091E100877F8093E10082E08A
:104180008093D3031092CF038091E1008E7F8093C0
:10419000E1008091E2008E7F8093E2008091E20056
:1041A00080618093E20042E060E080E00E941F1F97
:1041B0008091F00088608093F0000E941E1CFF91A7
:1041C000EF91BF91AF919F918F917F916F915F918F
:1041D0004F913F912F910F900FBE0F901F90189508
:1041E0001F920F920FB60F9211242F933F934F936C
:1041F0005F936F937F938F939F93AF93BF93CF936F
:10420000DF93EF93FF93C091E900CF708091EC00B2
:10421000D82FD17080FDD0E81092E9008091F00095
:10422000877F8093F00078940E9434211092E900F7
:104230008091F00088608093F000CD2BCF70C09308
:10424000E900FF91EF91DF91CF91BF91AF919F91E5
:104250008F917F916F915F914F913F912F910F902F
:104260000FBE0F901F9018951F93CF93DF93CDB77C
:10427000DEB7AA970FB6F894DEBF0FBECDBFE4ED50
:10428000F3E08091F100819323E0EC3DF207C9F760
:104290000E94361C8091E80083FF2EC18091D403D8
:1042A0009091D503492F50E04A30510508F024C1C0
:1042B000FA01E255FF4F0C947227803821F08238C2
:1042C00009F01AC108C08091D0039091D1039923BD
:1042D00089F082600FC08091D8038F70873008F01A
:1042E0000BC18093E9008091EB0085FB882780F962
:1042F0001092E9009091E800977F9093E8008093F6
:10430000F1001092F100D1C0282F2D7F09F0F4C0E8
:10431000882319F0823061F0EFC08091D60381309C
:1043200009F0EAC0933009F080E08093D1032EC0F9
:104330008091D60381112AC08091D8038F702FEF0E
:10434000280F263008F0D8C08093E9002091EB00B8
:1043500020FF1CC0933021F48091EB00806214C0D8
:104360009091EB0090619093EB0021E030E0A90187
:1043700002C0440F551F8A95E2F74093EA0010925D
:10438000EA008091EB0088608093EB001092E900D6
:104390008091E800877F8093E8000E94541FACC0A2
:1043A0008111AAC01091D6031F778091E300807815
:1043B000812B8093E3008091E800877F8093E80061
:1043C0000E94541F8091E80080FFFCCF8091E300A1
:1043D00080688093E300111102C082E001C083E095
:1043E0008093D30389C08058823008F085C08091C3
:1043F000D6039091D7038C3D53E0950779F583E080
:104400008A838AE289834FB7F894DE01139620E00D
:104410003EE051E2E32FF0E050935700E49120FF9B
:1044200003C0E295EF703F5FEF708E2F90E0EA30AF
:1044300010F0C79601C0C0968D939D932F5F2431D5
:1044400049F74FBF8091E800877F8093E8006AE2D8
:1044500070E0CE0101960E94601E16C06091D803E4
:104460007091D903AE014F5F5F4F0E94521DBC0196
:10447000892B09F441C09091E800977F9093E80060
:1044800089819A810E94BE1E8091E8008B7780937B
:10449000E80032C0803881F58091E800877F809302
:1044A000E8008091CF038093F1008091E8008E773F
:1044B00072CF811121C08091D6039091D7039927A3
:1044C0000297D4F48091E800877F8093E800809180
:1044D000D6038093CF030E94541F8091CF03811194
:1044E00006C08091E30087FD02C081E001C084E046
:1044F0008093D3030E94221C8091E80083FF0AC0AE
:104500008091E800877F8093E8008091EB008062D3
:104510008093EB00AA960FB6F894DEBF0FBECDBF16
:10452000DF91CF911F9108950895CF938091D30388
:104530008823A1F0C091E900CF709091EC00892F01
:10454000817090FD80E8C82B1092E9008091E8000E
:1045500083FD0E943421CF70C093E900CF9108956C
:10456000662371F0FC019C01260F311DE217F30751
:1045700038F41EBC0DB407FEFDCF8EB58193F6CF87
:104580000895EF92FF920F931F93CF93DF93EC0167
:104590007B010E946A1A8C0166990CC082E08A95A0
:1045A000F1F700C0C8010E94821A8E159F05A0F382
:1045B00080E030C0809123028CBD809124028DBDAB
:1045C0002C981EBC00000DB407FEFDCF8EB588836D
:1045D0008E5F823070F42C9A82E48A95F1F700C0E5
:1045E0002C98C8010E94821A8E159F0550F380E016
:1045F00010C063E0CE0101960E94B0226B816F77FC
:10460000862F90E0419724F4CE0104960E94B022B8
:1046100081E02C9ADF91CF911F910F91FF90EF9045
:104620000895EF92FF920F931F93CF93DF93EC01C6
:104630008B01809123028CBD809124028DBD2C982A
:104640000E946A1A7C0188818EBD00000DB407FEAD
:10465000FDCF8EB58E3FB9F42C9A22E42A95F1F75E
:1046600000C02C98C7010E94821A8017910758F346
:1046700080E001C081E02C9ADF91CF911F910F91D2
:10468000FF90EF900895FE0131968B818F778D5FBB
:104690009F01280F311DC901E817F90758F721912B
:1046A0002EBD0DB407FEFDCFF7CF1F93CF93DF9341
:1046B000CDB7DEB764970FB6F894DEBF0FBECDBF9F
:1046C000E0912A0290912902E91709F43FC0182FBE
:1046D000669B21C066E970E0CE0101960E94C1226E
:1046E0008823A1F18C8187FD0DC020912A02809141
:1046F0002902281759F130E02F5F3F4F21703327EF
:1047000020932A02112311F190912A02809129020B
:1047100098131AC01BC0F0E0EE0FFF1FEB5DFD4FBA
:10472000808191810E94821A8D32914078F080912F
:104730002A0290912902891749F090E00196817030
:10474000992780932A0202C06699C4CF64960FB657
:10475000F894DEBF0FBECDBFDF91CF911F910895BA
:104760006F927F928F929F92AF92BF92CF92DF9281
:10477000EF92FF920F931F93CF93DF93CDB7DEB7E6
:10478000A8970FB6F894DEBF0FBECDBF7C018B019A
:104790006A014901FC0101900020E9F7CF0101976E
:1047A0005C01672B61F09091290280912A02981791
:1047B00021F081E00E945523F6CFF801108240E1FC
:1047C000742E5AE0652EA5014E195F09888D41317E
:1047D0005105DCF07D8A1E8A6F8A8078806180684E
:1047E000888FF701DE015996872D01900D928A95E9
:1047F000E1F7B401CE0145960E941123882309F404
:1048000064C0F0E1EF0EF11CDECF80E18D8B1E8ADB
:104810008AE08F8B842F8F77888F5527B701CE0141
:1048200049960E94CC27B401CE0145960E941123DF
:10483000F82E882309F449C001151105E1F40E94FE
:104840006A1A8C018091290290E09C012F5F3F4FF2
:104850002170332740912A02421709F45AC0880F69
:10486000991FFC01EB5DFD4F11830083209329020A
:104870000E946A1A52C05801AC0CBD1C78016CE24F
:1048800071E0CE0101960E94C1228823F1F0898156
:10489000803219F0F801108218C08C818F77CA2CF1
:1048A000CE188C1508F4C82ECC2051F0D12CA601BE
:1048B000BE016B5F7F4FC7010E94CC27EC0CFD1C33
:1048C0008C8187FDDCCFF70106C0F12C26C07F016B
:1048D00080818A3039F41082F70131970E171F0753
:1048E000B0F302C08D30B9F36AE070E0C8010E94F5
:1048F000D527009719F08C010F5F1F4F64E377E015
:10490000C8010E94B32721E0892B09F020E0F22E94
:1049100004C080E00E94552395CF8F2DA8960FB636
:10492000F894DEBF0FBECDBFDF91CF911F910F91E5
:10493000FF90EF90DF90CF90BF90AF909F908F90BF
:104940007F906F9008958F929F92AF92BF92CF9277
:10495000DF92EF92FF920F931F93CF93DF93CDB728
:10496000DEB77C015B014A01CDB6DEB60E94C327EB
:1049700001962DB73EB7281B390B0FB6F8943EBFF2
:104980000FBE2DBF0DB71EB70F5F1F4FB701C80178
:104990000E94BC2726E930E0A401B501C8010E94AD
:1049A000B0230FB6F894DEBE0FBECDBEDF91CF911F
:1049B0001F910F91FF90EF90DF90CF90BF90AF903D
:1049C0009F908F9008959F92AF92BF92CF92DF9267
:1049D000EF92FF920F931F93CF93DF93CDB7DEB784
:1049E000CA57D1090FB6F894DEBF0FBECDBF8C01F8
:1049F0009091290280912A0298139AC09091BC0349
:104A00008091BB03981709F493C08AE0899F9001B5
:104A10001124255D3D4FF901DE01AF58BF4F0190D4
:104A20000D928A95E1F7F901F080D580C680B780B4
:104A3000A08491840E946A1A9093C8038093C7034C
:104A4000FF2011F1F1E0FF1258C062EA76E09E010A
:104A50002F5F3F4F7901C9010E94BC27E6968FADB9
:104A6000E6978F93E5968FADE5978F93FF92EF9240
:104A70001F9280E38F937E0131E4E30EF11CFF92DD
:104A8000EF920E94E8272AC06DEB76E09E012F5F2F
:104A90003F4F7901C9010E94BC271F929F921F922C
:104AA000AF921F92BF921F92CF921F92DF92E69613
:104AB0008FADE6971F928F93E5968FADE5971F9286
:104AC0008F93FF92EF921F9280E38F937E0131E4E8
:104AD000E30EF11CFF92EF920E94E827980140E05C
:104AE00050E060E070E0C7010E94B0230FB6F89478
:104AF000DEBF0FBECDBF882379F08091BC039091BB
:104B0000BB038917A9F090E0019668E270E00E946B
:104B10005E278093BC030CC0FFE729EA33E0F15025
:104B200020403040E1F700C0000081E00E945523A2
:104B3000C658DF4F0FB6F894DEBF0FBECDBFDF9172
:104B4000CF911F910F91FF90EF90DF90CF90BF908A
:104B5000AF909F90089520E5FC01208321E0218300
:104B60009FB7F894289A209A8CB580618CBD8CB53B
:104B700080648CBD219A229A9FBF08958091BD03C5
:104B800008950F931F93CF93DF93CDB7DEB7C2582D
:104B9000D1090FB6F894DEBF0FBECDBF8091BE0322
:104BA000811122C01092BF031092BD036E987698B7
:104BB000249A2C9A83E292E00E94AB25549A5C9A44
:104BC0005C988FE19EE40197F1F700C000005C9AC9
:104BD0009FEF29E688E1915020408040E1F700C036
:104BE000000081E08093BE031092BF0304E917E048
:104BF00042E050E0B801CE018F579F4F0E94AA2794
:104C000040E850E0BE016F5F7F4FCF57DF4F888194
:104C10009981C158D0400E94A324882379F00E5F67
:104C20001F4F97E0003A190719F781E08093BF03FF
:104C30000E946A1A9093C8038093C7038091BF03B0
:104C4000CE57DF4F0FB6F894DEBF0FBECDBFDF915A
:104C5000CF911F910F910895CF93DF93CDB7DEB71A
:104C6000E0970FB6F894DEBF0FBECDBF8091BF03B3
:104C7000811105C00E94C125882309F479C081E013
:104C80000E9455238AE090E00E94E3248091C703AC
:104C90009091C8030E94821A893E9340C8F1809186
:104CA000C003811117C040E350E0BE016F5F7F4F2A
:104CB00081E297E00E94A324882349F040E350E07A
:104CC000BE016F5F7F4F8EE097E00E94A32481E0DA
:104CD0008093C0030E946A1A9093C8038093C7030D
:104CE00040E350E0BE016F5F7F4F80E097E00E949D
:104CF000A324882369F0CE0101960E948C2721E02D
:104D0000892B09F420E08091BD0382132093BD0319
:104D10008091C1039091C2030E94821A813197420F
:104D200038F19091290280912A02981321C00E94A3
:104D30006A1A9093C2038093C10340E350E0BE011E
:104D40006F5F7F4F86EF96E00E94A324882381F057
:104D5000CE0101960E948C27092E000CAA0BBB0BDA
:104D60008093C3039093C403A093C503B093C60379
:104D7000E0960FB6F894DEBF0FBECDBFDF91CF91A6
:104D800008957F928F929F92AF92BF92CF92DF92BF
:104D9000EF92FF920F931F93CF93DF93A82EEB0117
:104DA000142F0E946A1A7C0188E2C82ED12C9AE046
:104DB000992E112381F08980123010F00A8101C0F0
:104DC00000E0133050F07B80143040F0BC80153090
:104DD00030F04D8105C0812C00E0712CB12C40E0F9
:104DE0002091BB0330E0C9010196B6010E945E2705
:104DF0009091BC039817C9F09881929EF001939E00
:104E0000F00D1124E55DFD4F1082F282E182A38254
:104E10009483858206837782B08641878093BB0323
:104E2000173040F016502696C4CF86E990E00E94D5
:104E3000E324BFCF81E0DF91CF911F910F91FF90CD
:104E4000EF90DF90CF90BF90AF909F908F907F902A
:104E500008950F931F93CF93DF93EC0108E210E0C6
:104E60002091BB0330E0C9010196B8010E945E2782
:104E70009091BC03981305C086E990E00E94E3245A
:104E8000EFCF9AE0929FF001939FF00D1124E55D22
:104E9000FD4F91E09083D483C3838093BB0381E073
:104EA000DF91CF911F910F9108951092BB03109243
:104EB000BC03E5E2F2E014821582089597FB072E09
:104EC00016F4009407D077FD09D00E94782707FCDC
:104ED00005D03EF4909581959F4F0895709561950A
:104EE0007F4F0895EE0FFF1F0590F491E02D099478
:104EF000AA1BBB1B51E107C0AA1FBB1FA617B70700
:104F000010F0A61BB70B881F991F5A95A9F780951B
:104F10009095BC01CD010895FC0188279927E8945C
:104F200021912032E9F3293010F02E30C8F32B32D2
:104F300041F02D3239F4689404C00E94E027820FBA
:104F4000911D219120532A30C0F31EF49095819534
:104F50009F4F0895FB01DC0102C005900D92415066
:104F60005040D8F70895FB01DC018D910590801920
:104F70000110D9F3990B0895FB01DC0105900D9206
:104F80000020E1F70895FC0105900020E9F78095E5
:104F900090958E0F9F1F0895FB01DC0102C00190C8
:104FA0000D9241505040D8F70895FC0181E090E007
:104FB0000190061609F4CF010020D1F7019708955A
:104FC0007AE0979F902D879F802D910D1124089551
:104FD000AEE0B0E0EEEEF7E20C94F92A0D891E89FE
:104FE0008F89988D26E02C831A83098397FF02C04E
:104FF00080E090E801979E838D83AE01455E5F4F10
:10500000698D7A8DCE0101960E9418284D815E81AE
:1050100057FD0AC02F813885421753070CF49A01B7
:10502000F801E20FF31F10822E96E4E00C94152B8A
:10503000ABE0B0E0EEE1F8E20C94EB2A6C017B010E
:105040008A01FC0117821682838181FFCCC1CE01C7
:1050500001963C01F6019381F70193FD859193FF41
:1050600081917F01882309F4BAC1853239F493FD17
:10507000859193FF81917F01853229F4B60190E0FB
:105080000E940F2AE7CF912C212C312CFFE1F31540
:10509000D8F08B3279F038F4803279F08332A1F491
:1050A000232D20611DC08D3261F0803369F4232DE2
:1050B000216016C0832D8260382EE32DE4603E2EE1
:1050C0002AC0F32DF8601DC037FC2DC020ED280F3D
:1050D0002A3040F08E32B9F436FC81C1232D206491
:1050E000322E19C036FE06C08AE0989E200D11248B
:1050F000922E11C0EAE02E9E200D1124222EF32DB7
:10510000F0623F2E08C08C3621F4832D8068382E43
:1051100002C0883641F4F70193FD859193FF819198
:105120007F018111B3CF982F9F7D9554933028F440
:105130000C5F1F4F9FE399830DC0833631F0833797
:1051400071F0833509F059C021C0F801808189834D
:105150000E5F1F4F88248394912C530113C02801A4
:10516000F2E04F0E511CF801A080B18036FE03C062
:10517000692D70E002C06FEF7FEFC5010E94042A25
:105180004C018201F32DFF773F2E16C0280122E04B
:10519000420E511CF801A080B18036FE03C0692D7B
:1051A00070E002C06FEF7FEFC5010E94F9294C014A
:1051B000F32DF0683F2E820133FC1BC0822D90E05E
:1051C00088169906B0F4B60180E290E00E940F2A9A
:1051D0002A94F4CFF50137FC859137FE81915F0168
:1051E000B60190E00E940F2A21102A9421E0821A31
:1051F00091088114910471F7E8C0843611F0893662
:1052000041F5F80137FE07C0608171818281938189
:105210000C5F1F4F08C060817181072E000C880B46
:10522000990B0E5F1F4FF32DFF763F2E97FF09C09E
:1052300090958095709561957F4F8F4F9F4FF06847
:105240003F2E2AE030E0A3010E944B2A882E8618C8
:1052500045C0853731F4232D2F7EB22E2AE030E071
:1052600025C0932D997FB92E8F36C1F018F488355B
:1052700079F0B5C0803719F0883721F0B0C0E92F38
:10528000E061BE2EB4FE0DC0FB2DF460BF2E09C040
:1052900034FE0AC0292F2660B22E06C028E030E076
:1052A00005C020E130E002C020E132E0F801B7FEA5
:1052B00007C060817181828193810C5F1F4F06C09E
:1052C0006081718180E090E00E5F1F4FA3010E941A
:1052D0004B2A882E8618FB2DFF773F2E36FE0DC0F9
:1052E000232D2E7FA22E891458F434FE0BC032FCDD
:1052F00009C0832D8E7EA82E05C0B82CA32C03C018
:10530000B82C01C0B92CA4FE0FC0FE01E80DF11DA0
:105310008081803321F49A2D997EA92E09C0A2FEA6
:1053200006C0B394B39404C08A2D867809F0B39470
:10533000A3FC11C0A0FE06C0B21488F4280C922C65
:105340009B180EC0B21460F4B60180E290E00E9497
:105350000F2AB394F7CFB21418F42B1802C0982C6C
:10536000212CA4FE10C0B60180E390E00E940F2A19
:10537000A2FE17C0A1FC03C088E790E002C088E548
:1053800090E0B6010CC08A2D867859F0A1FE02C0CB
:105390008BE201C080E2A7FC8DE2B60190E00E94A2
:1053A0000F2A891438F4B60180E390E00E940F2A96
:1053B0009A94F7CF8A94F301E80DF11D8081B6012C
:1053C00090E00E940F2A8110F5CF222009F442CEEE
:1053D000B60180E290E00E940F2A2A94F6CFF601EF
:1053E0008681978102C08FEF9FEF2B96E2E10C94AC
:1053F000072BFC010590615070400110D8F7809593
:1054000090958E0F9F1F0895FC0161507040019090
:105410000110D8F7809590958E0F9F1F08950F93D8
:105420001F93CF93DF93FB01238121FD03C08FEFF7
:105430009FEF2CC022FF16C0468157812481358101
:105440004217530744F4A081B1819D012F5F3F4F64
:10545000318320838C93268137812F5F3F4F3783A1
:10546000268314C08B01EC01FB010084F185E02D43
:105470000995892BE1F6D80116968D919C91179785
:10548000019617969C938E931697CE01DF91CF913C
:105490001F910F910895FA01AA27283051F1203168
:1054A00081F1E8946F936E7F6E5F7F4F8F4F9F4FB8
:1054B000AF4FB1E03ED0B4E03CD0670F781F891FFA
:1054C0009A1FA11D680F791F8A1F911DA11D6A0FC8
:1054D000711D811D911DA11D20D009F468943F917B
:1054E0002AE0269F11243019305D3193DEF6CF017A
:1054F0000895462F4770405D4193B3E00FD0C9F740
:10550000F6CF462F4F70405D4A3318F0495D31FDAC
:105510004052419302D0A9F7EACFB4E0A6959795FF
:10552000879577956795BA95C9F7009761057105D5
:1055300008959B01AC010A2E06945795479537951F
:105540002795BA95C9F7620F731F841F951FA01D79
:105550000895F999FECF92BD81BDF89A992780B53B
:105560000895A8E1B0E042E050E00C94DD2A262F37
:10557000F999FECF92BD81BDF89A019700B4021649
:1055800039F01FBA20BD0FB6F894FA9AF99A0FBEF7
:1055900008950396272F0E94B82A0E94B72A252F24
:1055A0000E94B82A242F0C94B82A0196272F0E9413
:1055B000B82A0C94B72ADC01CB01FC01F999FECF83
:1055C00006C0F2BDE1BDF89A319600B40D9241508B
:1055D0005040B8F708952F923F924F925F926F928A
:1055E0007F928F929F92AF92BF92CF92DF92EF9273
:1055F000FF920F931F93CF93DF93CDB7DEB7CA1BF4
:10560000DB0B0FB6F894DEBF0FBECDBF09942A881E
:10561000398848885F846E847D848C849B84AA84C6
:10562000B984C884DF80EE80FD800C811B81AA8153
:10563000B981CE0FD11D0FB6F894DEBF0FBECDBF1E
:08564000ED010895F894FFCF7D
:10564800DC010F1B8F1B121B5A1B131B010495F047
:10565800F16766909192939736F6F7F5F435964090
:0E56680022716206CF05F1057405A6058D05B9
:00000001FF
